{
  "transactions": [
    {
      "hash": "0x9e6960cf72aaba57d70dd31f694dbe3d1ace264d37b7958d03a4ad478fe8ff7f",
      "transactionType": "CALL",
      "contractName": null,
      "contractAddress": "0x31a4a867eecd2504e7fcd8589746bfd1faf5a560",
      "function": "submitTransfer((bytes32,uint8,address,address,bytes32,bytes32,bytes32,bytes32,uint64,uint64,uint256,bytes32,bytes32,uint64,uint64))",
      "arguments": [
        "(0x16ba7f430e41cd39be92fc7dd22e0dae93748faa396c6ab4a8f130939cd34545, 0, 0x837171DCE4161927795c61524E92260b0BDaeB70, 0x837171DCE4161927795c61524E92260b0BDaeB70, 0xbcdb6cfabeedf4cb75ce3843392e397abf95b450b1712991ca6db65da2a9cf8c, 0xbcdb6cfabeedf4cb75ce3843392e397abf95b450b1712991ca6db65da2a9cf8c, 0xcdcac76f717eaf570f9c540821a4da68ccc36596a054f9750352bf886e85243b, 0x0000000000000000000000000000000000000000000000000000000000000000, 1, 2, 1000000000000000000, 0x0000000000000000000000000000000000000000000000000000000000000000, 0x0000000000000000000000000000000000000000000000000000000000000000, 1784617596, 1784621196)"
      ],
      "transaction": {
        "from": "0x837171dce4161927795c61524e92260b0bdaeb70",
        "to": "0x31a4a867eecd2504e7fcd8589746bfd1faf5a560",
        "gas": "0xa0664",
        "value": "0x0",
        "input": "0xf2c539e216ba7f430e41cd39be92fc7dd22e0dae93748faa396c6ab4a8f130939cd345450000000000000000000000000000000000000000000000000000000000000000000000000000000000000000837171dce4161927795c61524e92260b0bdaeb70000000000000000000000000837171dce4161927795c61524e92260b0bdaeb70bcdb6cfabeedf4cb75ce3843392e397abf95b450b1712991ca6db65da2a9cf8cbcdb6cfabeedf4cb75ce3843392e397abf95b450b1712991ca6db65da2a9cf8ccdcac76f717eaf570f9c540821a4da68ccc36596a054f9750352bf886e85243b0000000000000000000000000000000000000000000000000000000000000000000000000000000000000000000000000000000000000000000000000000000100000000000000000000000000000000000000000000000000000000000000020000000000000000000000000000000000000000000000000de0b6b3a764000000000000000000000000000000000000000000000000000000000000000000000000000000000000000000000000000000000000000000000000000000000000000000000000000000000000000000000000000000000000000000006a5f1a7c000000000000000000000000000000000000000000000000000000006a5f288c",
        "nonce": "0x147",
        "chainId": "0xaa36a7"
      },
      "additionalContracts": [],
      "isFixedGasLimit": false
    }
  ],
  "receipts": [
    {
      "status": "0x1",
      "cumulativeGasUsed": "0x2491175",
      "logs": [
        {
          "address": "0x1b7b2e85be973d875b4ed5c20cf0ab01ecbb93ab",
          "topics": [
            "0x7e6aaf3fd12ee023589e102c9699d2f325333a3bb26ef4bb1462b3c206e05a0a",
            "0x16ba7f430e41cd39be92fc7dd22e0dae93748faa396c6ab4a8f130939cd34545",
            "0x000000000000000000000000837171dce4161927795c61524e92260b0bdaeb70",
            "0x000000000000000000000000837171dce4161927795c61524e92260b0bdaeb70"
          ],
          "data": "0x0000000000000000000000000000000000000000000000000000000000000000000000000000000000000000000000000000000000000000000000006a5f1aac000000000000000000000000000000000000000000000000000000006a5f288c",
          "blockHash": "0x2889f1510cdabd9a0b8fc1031df6d0a209b76845b5c952dd24f8edd1e96ccc39",
          "blockNumber": "0xacb37e",
          "blockTimestamp": "0x6a5f1aac",
          "transactionHash": "0x9e6960cf72aaba57d70dd31f694dbe3d1ace264d37b7958d03a4ad478fe8ff7f",
          "transactionIndex": "0x84",
          "logIndex": "0x2b5",
          "removed": false
        },
        {
          "address": "0x31a4a867eecd2504e7fcd8589746bfd1faf5a560",
          "topics": [
            "0x1bc41c5c25de58f9aff8750f8cb896c10745dd9a0f5d7c83a71d5a9d8334eecf",
            "0x16ba7f430e41cd39be92fc7dd22e0dae93748faa396c6ab4a8f130939cd34545",
            "0x000000000000000000000000837171dce4161927795c61524e92260b0bdaeb70",
            "0x000000000000000000000000837171dce4161927795c61524e92260b0bdaeb70"
          ],
          "data": "0x",
          "blockHash": "0x2889f1510cdabd9a0b8fc1031df6d0a209b76845b5c952dd24f8edd1e96ccc39",
          "blockNumber": "0xacb37e",
          "blockTimestamp": "0x6a5f1aac",
          "transactionHash": "0x9e6960cf72aaba57d70dd31f694dbe3d1ace264d37b7958d03a4ad478fe8ff7f",
          "transactionIndex": "0x84",
          "logIndex": "0x2b6",
          "removed": false
        },
        {
          "address": "0x779877a7b0d9e8603169ddbd7836e478b4624789",
          "topics": [
            "0xddf252ad1be2c89b69c2b068fc378daa952ba7f163c4a11628f55a4df523b3ef",
            "0x00000000000000000000000079449beab516fe4d1d781f4655d819aef6a00d58",
            "0x00000000000000000000000012492154714fbd28f28219f6fc4315d19de1025b"
          ],
          "data": "0x0000000000000000000000000000000000000000000000000229d8362a74b920",
          "blockHash": "0x2889f1510cdabd9a0b8fc1031df6d0a209b76845b5c952dd24f8edd1e96ccc39",
          "blockNumber": "0xacb37e",
          "blockTimestamp": "0x6a5f1aac",
          "transactionHash": "0x9e6960cf72aaba57d70dd31f694dbe3d1ace264d37b7958d03a4ad478fe8ff7f",
          "transactionIndex": "0x84",
          "logIndex": "0x2b7",
          "removed": false
        },
        {
          "address": "0x779877a7b0d9e8603169ddbd7836e478b4624789",
          "topics": [
            "0x8c5be1e5ebec7d5bd14f71427d1e84f3dd0314c0f7b2291e5b200ac8c7c3b925",
            "0x00000000000000000000000079449beab516fe4d1d781f4655d819aef6a00d58",
            "0x0000000000000000000000000bf3de8c5d3e8a2b34d2beeb17abfcebaf363a59"
          ],
          "data": "0xfffffffffffffffffffffffffffffffffffffffffffffffffdd627c9d58b46df",
          "blockHash": "0x2889f1510cdabd9a0b8fc1031df6d0a209b76845b5c952dd24f8edd1e96ccc39",
          "blockNumber": "0xacb37e",
          "blockTimestamp": "0x6a5f1aac",
          "transactionHash": "0x9e6960cf72aaba57d70dd31f694dbe3d1ace264d37b7958d03a4ad478fe8ff7f",
          "transactionIndex": "0x84",
          "logIndex": "0x2b8",
          "removed": false
        },
        {
          "address": "0x12492154714fbd28f28219f6fc4315d19de1025b",
          "topics": [
            "0xd0c3c799bf9e2639de44391e7f524d229b2b55f5b1ea94b2bf7da42f7243dddd"
          ],
          "data": "0x0000000000000000000000000000000000000000000000000000000000000020000000000000000000000000000000000000000000000000de41ba4fc9d91ad900000000000000000000000079449beab516fe4d1d781f4655d819aef6a00d5800000000000000000000000097e9d395aea458d55f0bb776f620c3e9401ecff7000000000000000000000000000000000000000000000000000000000000540d000000000000000000000000000000000000000000000000000000000007a12000000000000000000000000000000000000000000000000000000000000000000000000000000000000000000000000000000000000000000000000000000001000000000000000000000000779877a7b0d9e8603169ddbd7836e478b46247890000000000000000000000000000000000000000000000000229d8362a74b92000000000000000000000000000000000000000000000000000000000000001a0000000000000000000000000000000000000000000000000000000000000058000000000000000000000000000000000000000000000000000000000000005a06a9e1efb1c5b2f2e17ee4f316afbbe44ea5cafcf365652379872852a51141ed700000000000000000000000000000000000000000000000000000000000003c0000000000000000000000000000000000000000000000000000000000000002000000000000000000000000000000000000000000000000000000000000000015fa42365004d29017b6e1fff462c90ecf163a6f09987e7af7e4b8c324fc7cc5f00000000000000000000000000000000000000000000000000000000000000010000000000000000000000000000000000000000000000000000000000000000000000000000000000000000000000000000000000000000000000000000000016ba7f430e41cd39be92fc7dd22e0dae93748faa396c6ab4a8f130939cd3454500000000000000000000000000000000000000000000000000000000000000010000000000000000000000000000000000000000000000000000000000000002000000000000000000000000000000000000000000000000000000006a5f288c00000000000000000000000031a4a867eecd2504e7fcd8589746bfd1faf5a5600000000000000000000000000000000000000000000000000000000000000000d40842570cb5ac081458b29d1f53b70a57d880f65a828eddd827cdc93b6987f900000000000000000000000000000000000000000000000000000000000001a000000000000000000000000000000000000000000000000000000000000001e016ba7f430e41cd39be92fc7dd22e0dae93748faa396c6ab4a8f130939cd345450000000000000000000000000000000000000000000000000000000000000000000000000000000000000000837171dce4161927795c61524e92260b0bdaeb70000000000000000000000000837171dce4161927795c61524e92260b0bdaeb70bcdb6cfabeedf4cb75ce3843392e397abf95b450b1712991ca6db65da2a9cf8cbcdb6cfabeedf4cb75ce3843392e397abf95b450b1712991ca6db65da2a9cf8ccdcac76f717eaf570f9c540821a4da68ccc36596a054f9750352bf886e85243b0000000000000000000000000000000000000000000000000000000000000000000000000000000000000000000000000000000000000000000000000000000100000000000000000000000000000000000000000000000000000000000000020000000000000000000000000000000000000000000000000de0b6b3a764000000000000000000000000000000000000000000000000000000000000000000000000000000000000000000000000000000000000000000000000000000000000000000000000000000000000000000000000000000000000000000006a5f1a7c000000000000000000000000000000000000000000000000000000006a5f288c00000000000000000000000000000000000000000000000000000000000000000000000000000000000000000000000000000000000000000000000000000000",
          "blockHash": "0x2889f1510cdabd9a0b8fc1031df6d0a209b76845b5c952dd24f8edd1e96ccc39",
          "blockNumber": "0xacb37e",
          "blockTimestamp": "0x6a5f1aac",
          "transactionHash": "0x9e6960cf72aaba57d70dd31f694dbe3d1ace264d37b7958d03a4ad478fe8ff7f",
          "transactionIndex": "0x84",
          "logIndex": "0x2b9",
          "removed": false
        },
        {
          "address": "0x79449beab516fe4d1d781f4655d819aef6a00d58",
          "topics": [
            "0x2f96903f8b1053bf92692502561981ea1ded22e173728b36cce94793fe35e512",
            "0x6a9e1efb1c5b2f2e17ee4f316afbbe44ea5cafcf365652379872852a51141ed7",
            "0x0000000000000000000000000000000000000000000000000000000000000002",
            "0x16ba7f430e41cd39be92fc7dd22e0dae93748faa396c6ab4a8f130939cd34545"
          ],
          "data": "0x00000000000000000000000031a4a867eecd2504e7fcd8589746bfd1faf5a560",
          "blockHash": "0x2889f1510cdabd9a0b8fc1031df6d0a209b76845b5c952dd24f8edd1e96ccc39",
          "blockNumber": "0xacb37e",
          "blockTimestamp": "0x6a5f1aac",
          "transactionHash": "0x9e6960cf72aaba57d70dd31f694dbe3d1ace264d37b7958d03a4ad478fe8ff7f",
          "transactionIndex": "0x84",
          "logIndex": "0x2ba",
          "removed": false
        },
        {
          "address": "0x31a4a867eecd2504e7fcd8589746bfd1faf5a560",
          "topics": [
            "0xd6aeb854cc637ab77f282aa57fc1465bb7244ebefcbc75e1a483ca8c3544ff9c",
            "0x16ba7f430e41cd39be92fc7dd22e0dae93748faa396c6ab4a8f130939cd34545"
          ],
          "data": "0x0000000000000000000000000000000000000000000000000000000000000002",
          "blockHash": "0x2889f1510cdabd9a0b8fc1031df6d0a209b76845b5c952dd24f8edd1e96ccc39",
          "blockNumber": "0xacb37e",
          "blockTimestamp": "0x6a5f1aac",
          "transactionHash": "0x9e6960cf72aaba57d70dd31f694dbe3d1ace264d37b7958d03a4ad478fe8ff7f",
          "transactionIndex": "0x84",
          "logIndex": "0x2bb",
          "removed": false
        }
      ],
      "logsBloom": "0x04000004000040010000000000800000000400010000000000000000000000000000200000000000000000010000000800000000040000000800000000200100000000000000008000000008000000000000000002000000000000000100000004008000080100000000000400001000800000000000000000000014000000000000000008000000000000000000800000000000000000000000800000000000020800000000080400060100000000000000000000100000000100000000000000000002000000000000000000040000000100000000000100000000000000200010806000000010000000100000000004000100008000000000000860000008",
      "type": "0x2",
      "transactionHash": "0x9e6960cf72aaba57d70dd31f694dbe3d1ace264d37b7958d03a4ad478fe8ff7f",
      "transactionIndex": "0x84",
      "blockHash": "0x2889f1510cdabd9a0b8fc1031df6d0a209b76845b5c952dd24f8edd1e96ccc39",
      "blockNumber": "0xacb37e",
      "gasUsed": "0x74206",
      "effectiveGasPrice": "0x1dab66c94",
      "from": "0x837171dce4161927795c61524e92260b0bdaeb70",
      "to": "0x31a4a867eecd2504e7fcd8589746bfd1faf5a560",
      "contractAddress": null
    }
  ],
  "libraries": [],
  "pending": [],
  "returns": {},
  "timestamp": 1784617645702,
  "chain": 11155111,
  "commit": "b11ac1b"
}