{
  "transactions": [
    {
      "hash": "0x06b1ab0991c1536a15d255da8cce6a2a54606e9d9062d7e5ae658352eb8f1ea2",
      "transactionType": "CREATE",
      "contractName": "RuleEngineComplianceProvider",
      "contractAddress": "0xe6b7ecdf535122d02465adc85659ab6dbf41bc4a",
      "function": null,
      "arguments": [
        "0x576FdA6522B2490e872356e3C8adf70D3361cdb9"
      ],
      "transaction": {
        "from": "0x837171dce4161927795c61524e92260b0bdaeb70",
        "gas": "0x19779d",
        "value": "0x0",
        "input": "0x60c080604052346100bc57602081611734803803809161001f82856100e2565b8339810103126100bc57516001600160a01b038116908181036100bc5781156100d35760805260405163062d3bd760e01b815290602090829060049082905afa9081156100c8575f91610092575b5060a05260405161161a908161011a82396080518161105e015260a051816110290152f35b90506020813d6020116100c0575b816100ad602093836100e2565b810103126100bc57515f61006d565b5f80fd5b3d91506100a0565b6040513d5f823e3d90fd5b636c9f101360e11b5f5260045ffd5b601f909101601f19168101906001600160401b0382119082101761010557604052565b634e487b7160e01b5f52604160045260245ffdfe60806040526004361015610011575f80fd5b5f3560e01c806301ffc9a7146101af5780630bbac0c0146101aa578063163e3b6d146101a55780631a335303146101a05780632c03ca081461019b57806332357460146101965780633960c108146101915780633e0a44421461018c578063489a42ef146101875780635f3310911461017357806367612083146101825780636daf79ce1461017d578063731b0270146101785780637599ad90146101735780637ff439431461016e5780638105fa10146101695780639104f8be1461016457806395d806de1461015f578063a908606c1461015a578063af4e71fd14610155578063bfb8858e14610150578063c6d392f21461014b578063cd70fa4b14610146578063ddbe4f8214610141578063de0ed86f1461013c5763e76c170214610137575f80fd5b610bd1565b610b5e565b610b43565b610a8c565b610a5d565b610a33565b610a01565b6109d2565b610998565b6108f4565b6107c4565b6106ce565b61055d565b61064b565b61061c565b610597565b610540565b610517565b61047e565b6103dd565b610322565b61025e565b610238565b610209565b346102055760203660031901126102055760043563ffffffff60e01b8116809103610205576020906303c0cf3d60e51b81149081156101f4575b506040519015158152f35b6301ffc9a760e01b1490505f6101e9565b5f80fd5b34610205576020366003190112610205576004355f526002602052602060ff60405f2054166040519015158152f35b34610205575f3660031901126102055760205f54604051908152f35b8015150361020557565b34610205576040366003190112610205576004356102a660243561028181610254565b61028961101a565b825f52600460205260405f209060ff801983541691151516179055565b6040516020810191604083526014606083015273212627a1a5a2a22fa52aa924a9a224a1aa24a7a760611b60808301526040820152608081526102ea60a082610c21565b5190207f065b24e6788841286f34668faf14826f38f62d0b0f7a929a456dd49d61e03bcf5f80a2005b60243590600482101561020557565b346102055760203660031901126102055760043560048110156102055761034761101a565b60ff811690600382116103b357600411156103ae5760ff19600a541617600a557fbdd01ecc9e41d4df0ad58cb35d6dcd7e0c589f48041c40fe0372dd0cc4062e287f065b24e6788841286f34668faf14826f38f62d0b0f7a929a456dd49d61e03bcf5f80a2005b6104e6565b50630a0b40b560e31b5f5260045260245ffd5b6005111561020557565b35906103db826103c6565b565b34610205576040366003190112610205576004356103fa816103c6565b61043760243561040981610254565b61041161101a565b61041a83610762565b825f52600b60205260405f209060ff801983541691151516179055565b604051602081019160408352600e60608301526d20a62627aba2a22fa0a1aa24a7a760911b608083015261046a81610762565b6040820152608081526102ea60a082610c21565b346102055760403660031901126102055760043560243561049d61101a565b815f52600760205260405f2055604051602081019160408352600c60608301526b26a0ac2faa2920a729a322a960a11b60808301526040820152608081526102ea60a082610c21565b634e487b7160e01b5f52602160045260245ffd5b600411156103ae57565b9190602083019260048210156103ae5752565b34610205575f3660031901126102055761053c60ff600a541660405191829182610504565b0390f35b34610205575f366003190112610205576020600654604051908152f35b34610205575f3660031901126102055760206040517f65827dc4771722a7120c94f70a920b2ca1c7c1bb7f6fac17f97d4f6fd5e02d338152f35b34610205576040366003190112610205576004356105df6024356105ba81610254565b6105c261101a565b825f52600260205260405f209060ff801983541691151516179055565b604051602081019160408352600d60608301526c10531313d5d15117d054d4d155609a1b60808301526040820152608081526102ea60a082610c21565b34610205576020366003190112610205576004355f526001602052602060ff60405f2054166040519015158152f35b346102055760403660031901126102055760043560243561066a61101a565b815f52600860205260405f2055604051602081019160408352600b60608301526a4d41585f484f4c44494e4760a81b60808301526040820152608081526102ea60a082610c21565b6001600160401b0381160361020557565b35906103db826106b2565b34610205576040366003190112610205576004356106eb816106b2565b6001600160401b03602435916106ff61101a565b1690815f52600360205260405f2055604051602081019160408352601260608301527121a420a4a72fa52aa924a9a224a1aa24a7a760711b60808301526040820152608081526102ea60a082610c21565b6101e090600319011261020557600490565b600511156103ae57565b60808091805161077b81610762565b8452602081015160208501526001600160401b0360408201511660408501526001600160401b0360608201511660608501520151910152565b60a0810192916103db919061076c565b346102055761053c6107d536610750565b6107dd610c6c565b9061086c61085c6101c06107f86107f2610ca6565b85611105565b93841561088a5761080a5f5b87610cc9565b5f54941561087d5761081a610cf6565b60405161083f8161083160208201948a8787610d54565b03601f198101835282610c21565b5190206020870152426001600160401b0316604087015201610e9e565b6001600160401b03166060840152565b6080820152604051918291826107b4565b610885610cd2565b61081a565b61080a6001610804565b601111156103ae57565b60e06020916108b18160c081019561076c565b60c060a08201528451809452019201905f905b8082106108d15750505090565b90919283519060118210156103ae576020816001938293520194019201906108c4565b346102055761090236610750565b61090a610c6c565b610912610ca6565b9161091d8382611105565b905f5f5b6010811061095c57506101c06109489261085c928752845f1461088a5761080a5f87610cc9565b608082015261053c6040519283928361089e565b61096e6109698288610ec9565b610edd565b61097781610894565b610984575b600101610921565b90610990600191610efe565b91905061097c565b34610205575f3660031901126102055760206040517f7c6d8eee290187f2b376ad919de569e0ccbf6966662d35c18bd1f24cee78ee288152f35b34610205576020366003190112610205576004355f526005602052602060ff60405f2054166040519015158152f35b34610205576020366003190112610205576004355f52600960205261053c60ff60405f20541660405191829182610504565b3461020557604036600319011261020557610a5b602435600435610a5682610254565b610f1d565b005b34610205576020366003190112610205576004355f526004602052602060ff60405f2054166040519015158152f35b3461020557604036600319011261020557600435610aa8610313565b610ab061101a565b60048110156103ae57600360ff821611610b1e57610adf90610ada835f52600960205260405f2090565b610c47565b6040516102ea81610831602082019485919060408352600e60408401526d494e564553544f525f434c41535360901b6060840152602060808401930152565b80610b2b610b40926104fa565b630a0b40b560e31b5f5260ff16600452602490565b5ffd5b34610205575f36600319011261020557602060405160038152f35b3461020557602036600319011261020557600435610b7a61101a565b8015610bc2575f54815f55815f52600160205260405f20600160ff198254161790557fc72071dba26fc10191641f1a2fe6287281c12f7b35da6af84d3abd15e41f42485f80a3005b631cb28f8560e21b5f5260045ffd5b34610205576020366003190112610205576001600160401b03600435610bf6816106b2565b165f526003602052602060405f2054604051908152f35b634e487b7160e01b5f52604160045260245ffd5b90601f801991011681019081106001600160401b03821117610c4257604052565b610c0d565b9060048110156103ae5760ff80198354169116179055565b90610c6982610762565b52565b6040519060a082018281106001600160401b03821117610c42576040525f6080838281528260208201528260408201528260608201520152565b6040516102209190610cb88382610c21565b6010815291601f1901366020840137565b610c6982610762565b60405190610ce1604083610c21565b600682526511115392515160d21b6020830152565b60405190610d05604083610c21565b60088252671054141493d5915160c21b6020830152565b35906001600160a01b038216820361020557565b805180835260209291819084018484015e5f828201840152601f01601f1916010190565b610e9b9392610e87610e766101c06102209580358652610d83610d79602083016103d0565b6020880190610c5f565b610da2610d9260408301610d1c565b6001600160a01b03166040880152565b610dc1610db160608301610d1c565b6001600160a01b03166060880152565b6080810135608087015260a081013560a087015260c081013560c087015260e081013560e0870152610e0a610df961010083016106c3565b6001600160401b0316610100880152565b610e2b610e1a61012083016106c3565b6001600160401b0316610120880152565b610140810135610140870152610160810135610160870152610180810135610180870152610e70610e5f6101a083016106c3565b6001600160401b03166101a0880152565b016106c3565b6001600160401b03166101c0840152565b6101e0820152816102008201520190610d30565b90565b35610e9b816106b2565b805115610eb55760200190565b634e487b7160e01b5f52603260045260245ffd5b8051821015610eb55760209160051b010190565b5160118110156103ae5790565b634e487b7160e01b5f52601160045260245ffd5b5f198114610f0c5760010190565b610eea565b8015610f0c575f190190565b90610f2661101a565b5f8281526005602052604090205460ff1615158115151461100157610f6881610f57845f52600560205260405f2090565b9060ff801983541691151516179055565b15610fee57610f80610f7b600654610efe565b600655565b604051610fc581610831602082019485919060408352601460408401527320a62627aba2a22fa52aa924a9a224a1aa24a7a760611b6060840152602060808401930152565b5190207f065b24e6788841286f34668faf14826f38f62d0b0f7a929a456dd49d61e03bcf5f80a2565b610ffc610f7b600654610f11565b610f80565b5050565b908160209103126102055751610e9b81610254565b604051632474521560e21b81527f000000000000000000000000000000000000000000000000000000000000000060048201819052336024830152906020816044817f00000000000000000000000000000000000000000000000000000000000000006001600160a01b03165afa9081156110e4575f916110b5575b501561109f5750565b63da5ea9b560e01b5f523360045260245260445ffd5b6110d7915060203d6020116110dd575b6110cf8183610c21565b810190611005565b5f611096565b503d6110c5565b6040513d5f823e3d90fd5b35610e9b816103c6565b60118210156103ae5752565b905f9161113061111f61111a602084016110ef565b611334565b61112b85939293610ea8565b6110f9565b1561132b575b60808101356111546111478261135e565b61112b8787949394610ec9565b1561131b575b60a082013561117861116b82611369565b61112b8888949394610ec9565b1561130b575b60c08301359161119d61119084611374565b61112b8989949394610ec9565b156112fb575b6111db6111906111c56111b96101008801610e9e565b6001600160401b031690565b6111d56111b96101208901610e9e565b9061138e565b156112e2575b61116b6111ed91611486565b156112c9575b6111476111ff916114f7565b156112b9575b6101408201359061121961116b8383611580565b1561129e575b6112399161122c916115a0565b61112b8686949394610ec9565b15611279575b8261112b61125b6112566101c06112639501610e9e565b6115c0565b929094610ec9565b1561126c571590565b61127590610efe565b1590565b6112639061112b61125b6112566112926101c097610efe565b9650505050905061123f565b93611239916112af61122c92610efe565b959150915061121f565b926112c390610efe565b92611205565b936111476112d96111ff92610efe565b959150506111f3565b9461116b6112f26111ed92610efe565b969150506111e1565b9461130590610efe565b946111a3565b9361131590610efe565b9361117e565b9261132590610efe565b9261115a565b60019250611136565b61133d81610762565b5f52600b60205260ff60405f205416611357575f90600190565b6001905f90565b611357575f90600290565b611357575f90600390565b5f52600260205260ff60405f205416611357575f90600490565b6113ac6113c5916001600160401b03165f52600360205260405f2090565b54916001600160401b03165f52600360205260405f2090565b5490801561147d57811561147d576113ef6113e8825f52600460205260405f2090565b5460ff1690565b611474576114086113e8835f52600460205260405f2090565b61146b5760065461141d575b50506001905f90565b6112756113e8611435925f52600560205260405f2090565b611463576112756113e8611451925f52600560205260405f2090565b61145c575f80611414565b5f90600990565b505f90600890565b50505f90600790565b50505f90600690565b50505f90600590565b60ff600a541690611496826104fa565b8115611414576114b060ff915f52600960205260405f2090565b5416906114bc826104fa565b81156114ee5760ff80916114cf846104fa565b6114d8816104fa565b169116106114e7576001905f90565b5f90600a90565b50505f90600c90565b905f9160ff600a54169061150a826104fa565b81156115755761152460ff915f52600960205260405f2090565b541690611530826104fa565b811561156a5760ff8091611543846104fa565b61154c816104fa565b1691161061155a5760019190565b811561156557600a90565b600b90565b505090505f90600d90565b505090506001905f90565b5f52600760205260405f2054908115611414571115611357575f90600e90565b5f52600860205260405f2054908115611414571115611357575f90600f90565b6001600160401b031680156115dc574210611357575f90601090565b506001905f9056fea264697066735822122094ebe1b86bdd9b264cb058b2887acaeda0893d203d4222ea73c7bf8b5abd18cb64736f6c634300081e0033000000000000000000000000576fda6522b2490e872356e3c8adf70d3361cdb9",
        "nonce": "0x106",
        "chainId": "0xa869"
      },
      "additionalContracts": [],
      "isFixedGasLimit": false
    },
    {
      "hash": "0xb339672932c176cf3c47664e90e633e6693905aaa87796b7c99126c657dd307b",
      "transactionType": "CREATE",
      "contractName": "CCIPTransportProvider",
      "contractAddress": "0x97e9d395aea458d55f0bb776f620c3e9401ecff7",
      "function": null,
      "arguments": [
        "0x576FdA6522B2490e872356e3C8adf70D3361cdb9",
        "0xF694E193200268f9a4868e4Aa017A0118C9a8177",
        "0xe935cf3b8cF5E30c7238731df14985cfc18BaEab",
        "0x0b9d5D9136855f6FEc3c0993feE6E9CE8a297846"
      ],
      "transaction": {
        "from": "0x837171dce4161927795c61524e92260b0bdaeb70",
        "gas": "0x19735c",
        "value": "0x0",
        "input": "0x6101208060405234610154576080816117c38038038091610020828561017a565b8339810103126101545780516001600160a01b038116808203610154576020830151926001600160a01b03841690818503610154576040810151906001600160a01b038216908183036101545760600151926001600160a01b038416840361015457841561016b571561016b571561016b5760049460209460805260a05260c0526101005260405192838092635adfeef560e11b82525afa908115610160575f9161012a575b5060e05260405161161190816101b28239608051816112bb015260a05181818161018a015281816104a801528181610b1d0152610eed015260c05181610733015260e051816112860152610100518181816101db01528181610ea001526115820152f35b90506020813d602011610158575b816101456020938361017a565b8101031261015457515f6100c6565b5f80fd5b3d9150610138565b6040513d5f823e3d90fd5b6315b80b1d60e01b5f5260045ffd5b601f909101601f19168101906001600160401b0382119082101761019d57604052565b634e487b7160e01b5f52604160045260245ffdfe608080604052600436101561001c575b50361561001a575f80fd5b005b5f905f3560e01c90816301ffc9a714610f4b57508063036e3f0914610e86578063073d3a7a14610dcb5780631148408d14610d8b5780631ea419cc14610d335780632934225514610cf95780632d1dd80414610c275780635075a9d414610bf15780635ac7199214610baf5780637547b77614610ab957806378b7926e1461098357806385572ffb146104715780638b6cecf81461043757806395d806de146103fc578063be51484f146103c1578063d0e30db0146103b2578063ddbe4f8214610396578063e120f726146101305763f7a7eb100361000f573461012d57602036600319011261012d576001600160401b0360406020928261011c610fe6565b168152808452205416604051908152f35b80fd5b503461012d576001600160401b039061014836611048565b9290610152611277565b1691828252816020526001600160401b03604083205416928315610384576101798261134d565b6040516320487ded60e01b815290947f00000000000000000000000000000000000000000000000000000000000000006001600160a01b031691602081806101c58a866004840161113b565b0381865afa908115610379578691610347575b507f00000000000000000000000000000000000000000000000000000000000000006001600160a01b0316156102d457509460209161022e96866040518099819582946396f4e9f960e01b84526004840161113b565b03925af180156102c9578390610292575b60209450925b8381526003855260408120905060ff198154169055827f2f96903f8b1053bf92692502561981ea1ded22e173728b36cce94793fe35e5128560a060405195338752013594a4604051908152f35b506020843d6020116102c1575b816102ac602093836110ac565b810103126102bd576020935161023f565b5f80fd5b3d915061029f565b6040513d85823e3d90fd5b916102f996916020936040518099819582946396f4e9f960e01b84526004840161113b565b03925af180156102c9578390610314575b6020945092610245565b506020843d60201161033f575b8161032e602093836110ac565b810103126102bd576020935161030a565b3d9150610321565b90506020813d602011610371575b81610362602093836110ac565b810103126102bd57515f6101d8565b3d9150610355565b6040513d88823e3d90fd5b63c64cb39960e01b8352600452602482fd5b503461012d578060031936011261012d57602060405160078152f35b508060031936011261012d5780f35b503461012d578060031936011261012d5760206040517f5fa42365004d29017b6e1fff462c90ecf163a6f09987e7af7e4b8c324fc7cc5f8152f35b503461012d578060031936011261012d5760206040517fb817796a55d8f57a5c6e984d3f4023f5de6afebaa41c11c6968e4a975effd8b08152f35b503461012d57602036600319011261012d576001600160401b0360406020928261045f610fe6565b16815260018452205416604051908152f35b50346102bd5760203660031901126102bd576004356001600160401b0381116102bd578060040160a060031983360301126102bd577f00000000000000000000000000000000000000000000000000000000000000006001600160a01b0316330361097057803590815f52600360205260ff60405f205416600681101561095c576005811461093f576001811461093f575060206105126044850183611208565b90809291810103126102bd57356001600160a01b03811693908490036102bd5760248101936001600160401b036105488661123a565b165f5260016020526001600160401b0360405f20541694851561092c57855f52600260205260405f2060018060a01b0383165f5260205260ff60405f205416156109055750509060646105b392845f52600360205260405f20600560ff198254161790550190611208565b810192906020818503126102bd578035906001600160401b0382116102bd5701926101a0848203126102bd57604051906101a082018281106001600160401b038211176108f1576040526106068561124e565b8252602082016020860135815260408601359060078210156102bd576040840191825260608701359260048410156102bd576060850193845260808501976080810135895260a086019860a08201358a5261066360c08301610ffc565b60c0880190815261067660e08401610ffc565b60e0890190815261068a6101008501610ffc565b906101008a019182526106a06101208601611026565b926101208b019384526106b66101408701611026565b946101408c019586526101608c01966101608101358852610180810135906001600160401b0382116102bd570188601f820112156102bd578035906106fa826110cd565b996107086040519b8c6110ac565b828b52602083830101116102bd57815f926020809301838d01378a0101526101808c019788528d81527f00000000000000000000000000000000000000000000000000000000000000006001600160a01b03169a8b3b156102bd578e9a8e9a6040519e8f9d8e809e6337c9737960e11b825260048201526024015260448d01606090525161ffff1660648d01525160848c01525160a48b016107a99161125d565b5160c48a016107b79161126a565b5160e48901528d51610104890152516001600160401b0390811661012489015290518116610144880152905116610164860152516001600160a01b039081166101848601529051166101a4840152516101c4830152516101a06101e483015261082590610204830190611117565b03815a5f948591f190816108dc575b5061089a57507fd23732c5ee381ddf29df936f133ab33b7a5ced03c014adcb5523c81d662ba45b6108946108666110e8565b93838652600360205260408620600260ff198254161790555193604051918291602083526020830190611117565b0390a380f35b818452600360205260408420805460ff19166001179055915191907f81ca2731745110ed8d3c473f8202f79257b9fd15e30bd4e76c56ffe458b7bdc58480a480f35b6108e99195505f906110ac565b5f935f610834565b634e487b7160e01b5f52604160045260245ffd5b6109166001600160401b039161123a565b6348aa4ab360e11b5f521660045260245260445ffd5b8563c64cb39960e01b5f5260045260245ffd5b631844096760e21b5f5260048390526109579061103a565b60445ffd5b634e487b7160e01b5f52602160045260245ffd5b6333f7774f60e01b5f523360045260245ffd5b346102bd5760403660031901126102bd5761099c610fe6565b602435906001600160401b0382168092036102bd576001600160401b03906109c2611277565b1690815f525f6020526001600160401b0360405f205416151580610a9b575b610a6957805f5260016020526001600160401b0360405f205416151580610a7c575b610a695760207f60533b8f4541e70ae5ca8dce4d987bed55e33ddb4f74a87fb718aa1fc5f1e4e791835f525f825260405f20816001600160401b0319825416179055805f526001825260405f20846001600160401b0319825416179055604051908152a2005b5063c64cb39960e01b5f5260045260245ffd5b50805f526001602052816001600160401b0360405f2054161415610a03565b50815f525f602052806001600160401b0360405f20541614156109e1565b346102bd576001600160401b03610acf36611048565b911690815f525f6020526001600160401b0360405f205416918215610b9d57610b19602084610afd8561134d565b6040516320487ded60e01b81529384928392906004840161113b565b03817f00000000000000000000000000000000000000000000000000000000000000006001600160a01b03165afa8015610b92575f90610b5f575b602090604051908152f35b506020813d602011610b8a575b81610b79602093836110ac565b810103126102bd5760209051610b54565b3d9150610b6c565b6040513d5f823e3d90fd5b63c64cb39960e01b5f5260045260245ffd5b346102bd5760203660031901126102bd576001600160401b03610bd0610fe6565b165f525f60205260206001600160401b0360405f2054161515604051908152f35b346102bd5760203660031901126102bd576004355f52600360205260ff60405f205416604051600682101561095c576020918152f35b346102bd5760603660031901126102bd57610c40610fe6565b610c48611010565b604435918215158093036102bd576001600160401b0390610c67611277565b1691825f525f6020526001600160401b0360405f20541615610ce6577f378f44987a5b0a1c47eae763755f5dc5090a184b55840cda0546b89f21bf7e5691604091845f526002602052825f2060018060a01b0383165f52602052825f2060ff1981541660ff831617905582519160018060a01b031682526020820152a2005b8263c64cb39960e01b5f5260045260245ffd5b346102bd575f3660031901126102bd5760206040517f5fa42365004d29017b6e1fff462c90ecf163a6f09987e7af7e4b8c324fc7cc5f8152f35b346102bd5760403660031901126102bd57610d4c610fe6565b6001600160401b03610d5c611010565b91165f52600260205260405f209060018060a01b03165f52602052602060ff60405f2054166040519015158152f35b346102bd5760203660031901126102bd576001600160401b03610dac610fe6565b165f526004602052602060018060a01b0360405f205416604051908152f35b346102bd5760403660031901126102bd57610de4610fe6565b6001600160401b03610df4611010565b91610dfd611277565b1690815f525f6020526001600160401b0360405f20541615610a69576001600160a01b03168015610e775760207f6a7360f663af61663f1c7200fbeececfc000167c98a372fe026625b9bc382e3291835f526004825260405f20816bffffffffffffffffffffffff60a01b825416179055604051908152a2005b6315b80b1d60e01b5f5260045ffd5b346102bd575f3660031901126102bd57610e9e611277565b7f00000000000000000000000000000000000000000000000000000000000000006001600160a01b03811615610e77575f809160405182602082019163095ea7b360e01b835260018060a01b037f00000000000000000000000000000000000000000000000000000000000000001660248201528119604482015260448152610f286064826110ac565b51925af1610f346110e8565b5015610f3c57005b6312e038d560e31b5f5260045ffd5b346102bd5760203660031901126102bd576004359063ffffffff60e01b82168092036102bd5760209163fd3af7db60e01b8114908115610fd5575b8115610fc4575b8115610fb3575b8115610fa2575b5015158152f35b6301ffc9a760e01b14905083610f9b565b6320745dd160e21b81149150610f94565b6385572ffb60e01b81149150610f8d565b6385572ffb60e01b81149150610f86565b600435906001600160401b03821682036102bd57565b35906001600160401b03821682036102bd57565b602435906001600160a01b03821682036102bd57565b35906001600160a01b03821682036102bd57565b600681101561095c57602452565b9060406003198301126102bd576004356001600160401b03811681036102bd5791602435906001600160401b0382116102bd576101a09082900360031901126102bd5760040190565b60a081019081106001600160401b038211176108f157604052565b90601f801991011681019081106001600160401b038211176108f157604052565b6001600160401b0381116108f157601f01601f191660200190565b3d15611112573d906110f9826110cd565b9161110760405193846110ac565b82523d5f602084013e565b606090565b805180835260209291819084018484015e5f828201840152601f01601f1916010190565b906001600160401b03909392931681526040602082015261118161116b845160a0604085015260e0840190611117565b6020850151838203603f19016060850152611117565b90604084015191603f19828203016080830152602080845192838152019301905f5b8181106111dd5750505060806111da939460018060a01b0360608201511660a084015201519060c0603f1982850301910152611117565b90565b825180516001600160a01b0316865260209081015181870152604090950194909201916001016111a3565b903590601e19813603018212156102bd57018035906001600160401b0382116102bd576020019181360383136102bd57565b356001600160401b03811681036102bd5790565b359061ffff821682036102bd57565b90600782101561095c5752565b90600482101561095c5752565b604051632474521560e21b81527f000000000000000000000000000000000000000000000000000000000000000060048201819052336024830152906020816044817f00000000000000000000000000000000000000000000000000000000000000006001600160a01b03165afa908115610b92575f91611312575b50156112fc5750565b630311867360e51b5f523360045260245260445ffd5b90506020813d602011611345575b8161132d602093836110ac565b810103126102bd575180151581036102bd575f6112f3565b3d9150611320565b6060608060405161135d81611091565b8281528260208201528260408201525f83820152015260e081016001600160401b036113888261123a565b165f908152600460205260409020546001600160a01b03169182156115b757604051926020840152602083526113bf6040846110ac565b6040519160208084015261ffff6113d58361124e565b16604084015260208201356060840152604082013560078110156102bd5761140190608085019061125d565b606082013560048110156102bd576001600160401b03916114296114569260a087019061126a565b608084013560c086015260a084013560e08601528261144a60c08601610ffc565b16610100860152610ffc565b166101208301526001600160401b036114726101008301610ffc565b166101408301526001600160a01b0361148e6101208301611026565b166101608301526001600160a01b036114aa6101408301611026565b166101808301526101608101356101a0830152610180810135601e19823603018112156102bd5701602081359101906001600160401b0381116102bd5780360382136102bd5782816102009261152d946101a06101c0850152816101e0850152848401375f838284010152601f801991011681010301601f1981018352826110ac565b60405161153b6020826110ac565b5f8152604051916397a657c960e01b60208401526207a1206024840152602483526115676044846110ac565b6040519361157485611091565b8452602084015260408301527f00000000000000000000000000000000000000000000000000000000000000006001600160a01b03166060830152608082015290565b6001600160401b036115c88361123a565b166381b259d760e01b5f5260045260245ffdfea264697066735822122013b0dff73f7762c3baa3b62f3cd15f1fe91096888a739c7e867573572a7a117d64736f6c634300081e0033000000000000000000000000576fda6522b2490e872356e3c8adf70d3361cdb9000000000000000000000000f694e193200268f9a4868e4aa017a0118c9a8177000000000000000000000000e935cf3b8cf5e30c7238731df14985cfc18baeab0000000000000000000000000b9d5d9136855f6fec3c0993fee6e9ce8a297846",
        "nonce": "0x107",
        "chainId": "0xa869"
      },
      "additionalContracts": [],
      "isFixedGasLimit": false
    },
    {
      "hash": "0xd91de8f16852df991a66e85b5dc95571711b0dc930f5058678a9825b19881ddc",
      "transactionType": "CREATE",
      "contractName": "SettlementCoordinator",
      "contractAddress": "0xe935cf3b8cf5e30c7238731df14985cfc18baeab",
      "function": null,
      "arguments": [
        "0x576FdA6522B2490e872356e3C8adf70D3361cdb9",
        "2",
        "0x4e2E8f19a95BE64C0df6efEC0f60b3aE2876Ede7",
        "0xE6b7ECDf535122d02465aDC85659aB6dBF41bc4A",
        "0xDe9487e81d1d7A19F40ae2671fDA2e8C251FbD31",
        "0x97e9d395Aea458d55f0BB776F620c3E9401eCfF7"
      ],
      "transaction": {
        "from": "0x837171dce4161927795c61524e92260b0bdaeb70",
        "gas": "0x29ac6b",
        "value": "0x0",
        "input": "0x61016080604052346102325760c0816128858038038091610020828561037a565b833981010312610232578051906001600160a01b0382168083036102325760208201516001600160401b03811681036102325760408301516001600160a01b038116949091908583036102325760608501516001600160a01b03811696909490878603610232576080870151966001600160a01b038816908189036102325760a00151986001600160a01b038a1692838b0361023257841561034457156102fe57156102b8571561028357156102495760049260209260805260a05260405192838092635adfeef560e11b82525afa90811561023e575f91610208575b5060c05260e0526101005261012052610140526040516124d390816103b28239608051816101f9015260a05181818161073501528181610ee00152818161160001528181611b37015261226e015260c051816101c2015260e05181818161011d0152818161024e015281816104ec01528181610c6c015281816111e401528181611411015281816119520152611d2f015261010051818181609601526120ea0152610120518181816102f00152818161053001528181611287015281816119f2015261241d0152610140518181816105a60152818161060f01528181610e4a01528181610ff0015281816115660152818161168301528181611a9801528181611bbc01526121d90152f35b90506020813d602011610236575b816102236020938361037a565b8101031261023257515f6100fd565b5f80fd5b3d9150610216565b6040513d5f823e3d90fd5b6040516323e8dde960e21b81526020600482015260116024820152703a3930b739b837b93a283937bb34b232b960791b6044820152606490fd5b6040516323e8dde960e21b815260206004820152600c60248201526b30b9b9b2ba20b230b83a32b960a11b6044820152606490fd5b6040516323e8dde960e21b815260206004820152601860248201527f636f6d706c69616e6365506f6c69637950726f766964657200000000000000006044820152606490fd5b6040516323e8dde960e21b815260206004820152601560248201527f7472616e73666572496e74656e744d616e6167657200000000000000000000006044820152606490fd5b6040516323e8dde960e21b815260206004820152600d60248201526c30b1b1b2b9b9a6b0b730b3b2b960991b6044820152606490fd5b601f909101601f19168101906001600160401b0382119082101761039d57604052565b634e487b7160e01b5f52604160045260245ffdfe6080806040526004361015610012575f80fd5b5f905f3560e01c90816301ffc9a71461063e57508063118c9c84146105fa5780636f92e6f21461055f578063752b01431461051b578063b0d5edb9146104d7578063b1083f6e146101a1578063d648f7c7146100ee578063f2c539e2146100c85763f5be6d5f14610081575f80fd5b346100c557806003193601126100c5576040517f00000000000000000000000000000000000000000000000000000000000000006001600160a01b03168152602090f35b80fd5b50346100c5576101e03660031901126100c5575060206100e6610c54565b604051908152f35b50346100c55760203660031901126100c5576040516306dd961160e01b815260048035908201526020816024817f00000000000000000000000000000000000000000000000000000000000000006001600160a01b03165afa9081156101965760209291610169575b5060405190610165816106a5565b8152f35b6101899150823d841161018f575b61018181836108e0565b810190610919565b5f610157565b503d610177565b6040513d84823e3d90fd5b503461040e57602036600319011261040e57604051632474521560e21b81527f0000000000000000000000000000000000000000000000000000000000000000600482810182905233602484015235916020816044817f00000000000000000000000000000000000000000000000000000000000000006001600160a01b03165afa908115610403575f916104b8575b50156104a257506040516306dd961160e01b8152600481018290527f00000000000000000000000000000000000000000000000000000000000000006001600160a01b031690602081602481855afa8015610403576002915f91610483575b5061029a816106a5565b0361047057604051634edf484f60e01b815260048101839052906101e082602481845afa918215610403575f9261043f575b5060405163acf166c960e01b8152602081806102eb8660048301610a51565b03815f7f00000000000000000000000000000000000000000000000000000000000000006001600160a01b03165af1801561040357610412575b50803b1561040e575f8091604460405180948193639e3bdd4560e01b8352886004840152600660248401525af18015610403576103ce575b507f2fa43d535bc0e87d060f0b4b3e089613c5bdfb4aa2a9a8ffea72a2719ee9c5f06040839261014060018060a01b03838301511691015182519182526020820152a27fbec80e99f1dd2f75b5cce45bbc4b44f3781c83e6fa59f8a035e25390e7bea97a602060405160068152a280f35b6103db9193505f906108e0565b5f917f2fa43d535bc0e87d060f0b4b3e089613c5bdfb4aa2a9a8ffea72a2719ee9c5f061035d565b6040513d5f823e3d90fd5b5f80fd5b6104339060203d602011610438575b61042b81836108e0565b810190610901565b610325565b503d610421565b6104629192506101e03d8111610469575b61045a81836108e0565b810190610959565b905f6102cc565b503d610450565b50632714b0e560e21b5f5260045260245ffd5b61049c915060203d60201161018f5761018181836108e0565b5f610290565b630e82abc960e01b5f523360045260245260445ffd5b6104d1915060203d6020116104385761042b81836108e0565b5f610231565b3461040e575f36600319011261040e576040517f00000000000000000000000000000000000000000000000000000000000000006001600160a01b03168152602090f35b3461040e575f36600319011261040e576040517f00000000000000000000000000000000000000000000000000000000000000006001600160a01b03168152602090f35b3461040e57606036600319011261040e576004356001600160401b038116810361040e57604435906001600160401b03821161040e576101a0600319833603011261040e577f00000000000000000000000000000000000000000000000000000000000000006001600160a01b031633036105e7576105e59160040190602435906106f2565b005b633ecb5eeb60e21b5f523360045260245ffd5b3461040e575f36600319011261040e576040517f00000000000000000000000000000000000000000000000000000000000000006001600160a01b03168152602090f35b3461040e57602036600319011261040e576004359063ffffffff60e01b821680920361040e57602091631b7b615360e31b8114908115610680575b5015158152f35b6301ffc9a760e01b14905083610679565b35906001600160401b038216820361040e57565b600711156106af57565b634e487b7160e01b5f52602160045260245ffd5b356001600160401b038116810361040e5790565b60048110156106af57600452565b9060048210156106af5752565b9190916001600160401b03811660c083016001600160401b03610714826106c3565b16820361086c5750506001600160401b0360e08301610732816106c3565b827f000000000000000000000000000000000000000000000000000000000000000016928391160361086c575050825f525f60205260ff60405f205416610867576040820135600781101561040e576060830135906004821015908161040e5761079b816106a5565b600181036107fa57506106af57806107cf5750506107b890611ced565b5f525f60205260405f20600160ff19825416179055565b600281036107e25750906107b891611933565b63799da19b60e01b5f526107f5906106d7565b60245ffd5b90919250610807816106a5565b6002810361082657506106af57600181036107e257506107b8906113cc565b9050610831816106a5565b6003810361084c5750600381036107e257506107b8906111c4565b6303b3880360e01b5f5261085f816106a5565b60045260245ffd5b505050565b61087d6001600160401b03916106c3565b16906376feedf160e11b5f5260045260245260445ffd5b6101e081019081106001600160401b038211176108b057604052565b634e487b7160e01b5f52604160045260245ffd5b6101a081019081106001600160401b038211176108b057604052565b90601f801991011681019081106001600160401b038211176108b057604052565b9081602091031261040e5751801515810361040e5790565b9081602091031261040e5751600781101561040e5790565b51906001600160a01b038216820361040e57565b51906001600160401b038216820361040e57565b90816101e091031261040e576040519061097282610894565b805182526020810151600581101561040e57610a3e916101c091602085015261099d60408201610931565b60408501526109ae60608201610931565b60608501526080810151608085015260a081015160a085015260c081015160c085015260e081015160e08501526109e86101008201610945565b6101008501526109fb6101208201610945565b610120850152610140810151610140850152610160810151610160850152610180810151610180850152610a326101a08201610945565b6101a085015201610945565b6101c082015290565b600511156106af57565b9190916101c06001600160401b03816101e0840195805185526020810151610a7881610a47565b602086015260018060a01b03604082015116604086015260018060a01b0360608201511660608601526080810151608086015260a081015160a086015260c081015160c086015260e081015160e086015282610100820151166101008601528261012082015116610120860152610140810151610140860152610160810151610160860152610180810151610180860152826101a0820151166101a0860152015116910152565b9081602091031261040e575190565b35906001600160a01b038216820361040e57565b9190826101e091031261040e57604051610b5b81610894565b809280358252602081013590600582101561040e576101c0610c2b9181936020860152610b8a60408201610b2e565b6040860152610b9b60608201610b2e565b60608601526080810135608086015260a081013560a086015260c081013560c086015260e081013560e0860152610bd56101008201610691565b610100860152610be86101208201610691565b610120860152610140810135610140860152610160810135610160860152610180810135610180860152610c1f6101a08201610691565b6101a086015201610691565b910152565b805180835260209291819084018484015e5f828201840152601f01601f1916010190565b6040516336d26bf560e01b81526004803590820152907f00000000000000000000000000000000000000000000000000000000000000006001600160a01b03165f602435600581101561040e57610caa81610a47565b6024850152604435936001600160a01b03851680860361040e57604482018190526064356001600160a01b038116919082810361040e57826064850152608435608485015260a43560a485015260c43560c485015260e43560e4850152610104356001600160401b03811680910361040e57610104850152610124356001600160401b03811680910361040e576101248501526101443561014485015261016435610164850152610184356101848501526101a4356001600160401b03811680910361040e576101a48501526101c4356001600160401b03811680910361040e576101c48501526020846101e4815f8a5af1938415610403575f94611190575b5083975050827f1bc41c5c25de58f9aff8750f8cb896c10745dd9a0f5d7c83a71d5a9d8334eecf5f80a4610ddf366004610b42565b92610de9846120c0565b156110da575050604051906020820192610e1583610e078387610a51565b03601f1981018552846108e0565b610120810180516101c09092015160405163be51484f60e01b815291956001600160401b0391821693909116906020836004817f00000000000000000000000000000000000000000000000000000000000000006001600160a01b03165afa9283156110cf57859361109b575b50855190209260405195610e95876108c4565b600187526020870193845260408701966001600160401b03610feb938c89610f6e60209a6101809760018f526060880191848352608089019480865260a08a0196875260c08a0197897f00000000000000000000000000000000000000000000000000000000000000001689528d60e08c01526101008b0152306101208b01526101408a0152610160890152888801526040519d8e9b8c9b6370907b9360e11b8d5260048d0152604060248d015261ffff89511660448d01525160648c015251610f5e816106a5565b60848b01525160a48a01906106e5565b5160c48801525160e4870152511661010485015260e08101516001600160401b03908116610124860152610100820151166101448501526101208101516001600160a01b03908116610164860152610140820151166101848501526101608101516101a485015201516101a06101c48401526101e4830190610c30565b0381847f00000000000000000000000000000000000000000000000000000000000000006001600160a01b03165af190811561108f57506001600160401b0385937fd6aeb854cc637ab77f282aa57fc1465bb7244ebefcbc75e1a483ca8c3544ff9c93602093611062575b505116604051908152a2565b61108190843d8611611088575b61107981836108e0565b810190610b1f565b505f611056565b503d61106f565b604051903d90823e3d90fd5b9092506020813d6020116110c7575b816110b7602093836108e0565b8101031261040e5751915f610e82565b3d91506110aa565b6040513d87823e3d90fd5b919250929350803b1561040e575f8091604460405180948193639e3bdd4560e01b8352886004840152600460248401525af180156104035761117d575b5050805f51602061247e5f395f51905f526111776040516111396040826108e0565b601781527f436f6d706c69616e636520636865636b206661696c65640000000000000000006020820152604051918291602083526020830190610c30565b0390a290565b61118991505f906108e0565b5f5f611117565b9093506020813d6020116111bc575b816111ac602093836108e0565b8101031261040e5751925f610daa565b3d915061119f565b604051634edf484f60e01b815260a0919091013560048201819052905f907f00000000000000000000000000000000000000000000000000000000000000006001600160a01b0316906101e081602481855afa908115610403575f9161137b575b506040516306dd961160e01b815260048101859052602081602481865afa8015610403576003915f9161135c575b5061125d816106a5565b14611356576020611282916040518093819263b731f62f60e01b835260048301610a51565b03815f7f00000000000000000000000000000000000000000000000000000000000000006001600160a01b03165af1801561040357611339575b50803b1561040e575f8091604460405180948193639e3bdd4560e01b8352886004840152600360248401525af1801561040357611325575b5060207fbec80e99f1dd2f75b5cce45bbc4b44f3781c83e6fa59f8a035e25390e7bea97a91604051905060038152a2565b61133191505f906108e0565b5f60206112f4565b6113519060203d6020116104385761042b81836108e0565b6112bc565b50505050565b611375915060203d60201161018f5761018181836108e0565b5f611253565b61139491506101e03d81116104695761045a81836108e0565b5f611225565b903590601e198136030182121561040e57018035906001600160401b03821161040e5760200191813603831361040e57565b6113da61018082018261139a565b906020815f938101031261040e573591600583101561040e57604051634edf484f60e01b815260a0919091013560048201819052927f00000000000000000000000000000000000000000000000000000000000000006001600160a01b0316906101e083602481855afa928315610403575f93611912575b506040516306dd961160e01b815260048101869052602081602481865afa908115610403575f916118f3575b50611488816106a5565b6118ec5761149581610a47565b61184157803b1561175657604051639e3bdd4560e01b81526004810185905260016024820152838160448183865af180156117275790849161182c575b50506114dd826123f8565b1561175a57803b1561175657828091604460405180948193639e3bdd4560e01b8352896004840152600260248401525af1801561174b57908391611732575b50506101208101916001600160401b038351166001600160401b036101c0604051946115496020876108e0565b5f8652015160405163be51484f60e01b81529116916020826004817f00000000000000000000000000000000000000000000000000000000000000006001600160a01b03165afa9182156117275784926116f3575b508451602086012092604051956115b4876108c4565b600187526020870193845260408701966001600160401b0361167e938b89610f6e60209a6101809760018f52606088019160028352608089019480865260a08a0196875260c08a0197897f00000000000000000000000000000000000000000000000000000000000000001689528d60e08c01526101008b0152306101208b01526101408a0152610160890152888801526040519d8e9b8c9b6370907b9360e11b8d5260048d0152604060248d015261ffff89511660448d01525160648c015251610f5e816106a5565b0381847f00000000000000000000000000000000000000000000000000000000000000006001600160a01b03165af190811561108f57507fa78b2e397c0d4860822e5ddfad78f3759c2c2abd1d33f94b323f3f5c7a643587926020926001600160401b039261106257505116604051908152a2565b9091506020813d60201161171f575b8161170f602093836108e0565b8101031261040e5751905f61159e565b3d9150611702565b6040513d86823e3d90fd5b8161173c916108e0565b61174757815f61151c565b5080fd5b6040513d85823e3d90fd5b8280fd5b8091503b1561174757818091604460405180948193639e3bdd4560e01b8352886004840152600460248401525af1801561019657908291611817575b5050505f51602061247e5f395f51905f526118126040516117b86060826108e0565b603381527f4173736574207265736572766174696f6e206661696c65642061667465722064602082015272195cdd1a5b985d1a5bdb88185c1c1c9bdd985b606a1b6040820152604051918291602083526020830190610c30565b0390a2565b81611821916108e0565b6100c557805f611796565b81611836916108e0565b61175657825f6114d2565b8091503b1561040e575f8091604460405180948193639e3bdd4560e01b8352886004840152600460248401525af18015610403576118d9575b50505f51602061247e5f395f51905f5261181260405161189b6040826108e0565b601f81527f44657374696e6174696f6e2072656a65637465642076616c69646174696f6e006020820152604051918291602083526020830190610c30565b6118e591505f906108e0565b5f5f61187a565b5050505050565b61190c915060203d60201161018f5761018181836108e0565b5f61147e565b61192c9193506101e03d81116104695761045a81836108e0565b915f611452565b604051634edf484f60e01b815260a0929092013560048301819052915f7f00000000000000000000000000000000000000000000000000000000000000006001600160a01b03166101e083602481845afa928315610403575f93611ccc575b506040516306dd961160e01b815260048101869052602081602481855afa8015610403576003915f91611cad575b506119ca816106a5565b146118ec5760405163eda0f05160e01b8152602081806119ed8760048301610a51565b03815f7f00000000000000000000000000000000000000000000000000000000000000006001600160a01b03165af1801561040357611c90575b50803b1561040e575f8091604460405180948193639e3bdd4560e01b83528a6004840152600360248401525af1801561040357611c7d575b506001600160401b036101c060405193611a7a6020866108e0565b5f8552015160405163be51484f60e01b8152939116906020846004817f00000000000000000000000000000000000000000000000000000000000000006001600160a01b03165afa93841561174b578394611c49575b508051602082012060405192611ae5846108c4565b600184526020840195865260408401906020946001600160401b03898b61018094610f6e8b88869b869b6003611bb79c5260608a01936003855260808b019681885260a08c019889528a60c08d019a817f0000000000000000000000000000000000000000000000000000000000000000168c521660e08d01526101008c0152306101208c01526101408b01526101608a0152898901526040519e8f9c8d9c8d6370907b9360e11b90521660048d0152604060248d015261ffff89511660448d01525160648c015251610f5e816106a5565b0381847f00000000000000000000000000000000000000000000000000000000000000006001600160a01b03165af190811561108f5750916020917f559fa8a7ea406541f6b43bbea77ae2270ab6150db1904efa092640daf9c92ae693611c2c575b506001600160401b0360405191168152a2565b611c4290833d85116110885761107981836108e0565b505f611c19565b9093506020813d602011611c75575b81611c65602093836108e0565b8101031261040e5751925f611ad0565b3d9150611c58565b611c8991505f906108e0565b5f5f611a5f565b611ca89060203d6020116104385761042b81836108e0565b611a27565b611cc6915060203d60201161018f5761018181836108e0565b5f6119c0565b611ce69193506101e03d81116104695761045a81836108e0565b915f611992565b611cfb61018082018261139a565b8101905f916101e08282031261040e57611d1491610b42565b8051604051630e29a66960e21b8152600481019190915290927f00000000000000000000000000000000000000000000000000000000000000006001600160a01b031691602081602481865afa908115610403575f916120a1575b50611356576040516336d26bf560e01b81529360208580611d938460048301610a51565b03815f875af1948515610403575f9561206b575b50611db1906120c0565b15611ee157813b1561175657604051639e3bdd4560e01b81526004810185905260016024820152838160448183875af1801561172757908491611ecc575b5050611e0560c06001600160401b0392016106c3565b169060246101e060405192611e1986610a47565b85602085015260208452611e2e6040856108e0565b60405192838092634edf484f60e01b82528960048301525afa9081156117275784926001600160401b036101c060409694611e97947f20a24aa76e15f811ca068a168291a88d9c56ae4b3549ccae81a7d7f4688e586e9991611ead575b500151169087846121c9565b825191611ea381610a47565b82526020820152a2565b611ec691506101e03d81116104695761045a81836108e0565b5f611e8b565b81611ed6916108e0565b61175657825f611def565b813b1561040e57604051639e3bdd4560e01b8152600480820186905260248201525f8160448183875af1801561040357612054575b50611f9860c06001600160401b0392865f51602061247e5f395f51905f52611f8f604051611f456060826108e0565b602381527f44657374696e6174696f6e20636f6d706c69616e636520636865636b206661696020820152621b195960ea1b6040820152604051918291602083526020830190610c30565b0390a2016106c3565b60405191169290916101e06024916001602086015260208552611fbc6040866108e0565b60405192838092634edf484f60e01b82528960048301525afa91821561108f5761200093926001600160401b03926101c09291612035575b500151169084846121c9565b604051908160409160017f20a24aa76e15f811ca068a168291a88d9c56ae4b3549ccae81a7d7f4688e586e94526020820152a2565b61204e91506101e03d81116104695761045a81836108e0565b5f611ff4565b6120619193505f906108e0565b5f91611f98611f16565b9094506020813d602011612099575b81612087602093836108e0565b8101031261040e575193611db1611da7565b3d915061207a565b6120ba915060203d6020116104385761042b81836108e0565b5f611d6f565b60a06120e091604051809381926308105fa160e41b835260048301610a51565b0381600180851b037f0000000000000000000000000000000000000000000000000000000000000000165afa5f9181612135575b5061211e57505f90565b5161212881610a47565b61213181610a47565b1590565b90915060a0813d60a0116121c1575b8161215160a093836108e0565b8101031261040e576040519060a082018281106001600160401b038211176108b057604052805190600582101561040e5760809183526020810151602084015261219d60408201610945565b60408401526121ae60608201610945565b606084015201516080820152905f612114565b3d9150612144565b60405163be51484f60e01b8152937f00000000000000000000000000000000000000000000000000000000000000006001600160a01b0316939091602086600481885afa958615610403575f966123bd575b506001600160401b03169181516020830120906040519461223b866108c4565b600186526020860197885260408601916002835260608701916001835260808801905f825260a0890190815260c08901907f00000000000000000000000000000000000000000000000000000000000000006001600160401b0316825260e08a01928984526101008b01946001600160401b031685526101208b01953087526101408c01975f89526101608d01998a526101808d019a8b526040519e8f809e819e6370907b9360e11b8352600483015260248201604090525161ffff1690604401525160648d01525161230d816106a5565b60848c01525160a48b01612320916106e5565b5160c48a01525160e4890152516001600160401b0390811661010489015290518116610124880152905116610144860152516001600160a01b03908116610164860152905116610184840152516101a4830152516101a06101c483015261238c906101e4830190610c30565b03815a6020945f91f18015610403576123a25750565b6123ba9060203d6020116110885761107981836108e0565b50565b9095506020813d6020116123f0575b816123d9602093836108e0565b8101031261040e5751946001600160401b0361221b565b3d91506123cc565b6020612418916040518093819263313063fd60e01b835260048301610a51565b03815f7f00000000000000000000000000000000000000000000000000000000000000006001600160a01b03165af15f918161245c575b5061245957505f90565b90565b61247691925060203d6020116104385761042b81836108e0565b905f61244f56feb7f2edcf9ad08f56d2026152180092ac8a0736aeba63c6295a9ec2021a5484cda264697066735822122084daeeb851b3112c834bab18441c99da8b9495054e25c7b0b00805bf33e87bed64736f6c634300081e0033000000000000000000000000576fda6522b2490e872356e3c8adf70d3361cdb900000000000000000000000000000000000000000000000000000000000000020000000000000000000000004e2e8f19a95be64c0df6efec0f60b3ae2876ede7000000000000000000000000e6b7ecdf535122d02465adc85659ab6dbf41bc4a000000000000000000000000de9487e81d1d7a19f40ae2671fda2e8c251fbd3100000000000000000000000097e9d395aea458d55f0bb776f620c3e9401ecff7",
        "nonce": "0x108",
        "chainId": "0xa869"
      },
      "additionalContracts": [],
      "isFixedGasLimit": false
    },
    {
      "hash": "0x1fa3d4068324ce6b503e9e72aa7a4441199b14d6f8145e726fd14e57deee6f0a",
      "transactionType": "CALL",
      "contractName": null,
      "contractAddress": "0x576fda6522b2490e872356e3c8adf70d3361cdb9",
      "function": "grantRole(bytes32,address)",
      "arguments": [
        "0x52ba824bfabc2bcfcdf7f0edbb486ebb05e1836c90e78047efeb949990f72e5f",
        "0xe935cf3b8cF5E30c7238731df14985cfc18BaEab"
      ],
      "transaction": {
        "from": "0x837171dce4161927795c61524e92260b0bdaeb70",
        "to": "0x576fda6522b2490e872356e3c8adf70d3361cdb9",
        "gas": "0x124a7",
        "value": "0x0",
        "input": "0x2f2ff15d52ba824bfabc2bcfcdf7f0edbb486ebb05e1836c90e78047efeb949990f72e5f000000000000000000000000e935cf3b8cf5e30c7238731df14985cfc18baeab",
        "nonce": "0x109",
        "chainId": "0xa869"
      },
      "additionalContracts": [],
      "isFixedGasLimit": false
    },
    {
      "hash": "0xd8d07d6b3ead5a0f84ff1308301d929fdff1227bf319c1ba28c1c53627e0f51e",
      "transactionType": "CALL",
      "contractName": null,
      "contractAddress": "0x576fda6522b2490e872356e3c8adf70d3361cdb9",
      "function": "grantRole(bytes32,address)",
      "arguments": [
        "0x442a94f1a1fac79af32856af2a64f63648cfa2ef3b98610a5bb7cbec4cee6985",
        "0x000000000000000000000000000000000000cafE"
      ],
      "transaction": {
        "from": "0x837171dce4161927795c61524e92260b0bdaeb70",
        "to": "0x576fda6522b2490e872356e3c8adf70d3361cdb9",
        "gas": "0x9b90",
        "value": "0x0",
        "input": "0x2f2ff15d442a94f1a1fac79af32856af2a64f63648cfa2ef3b98610a5bb7cbec4cee6985000000000000000000000000000000000000000000000000000000000000cafe",
        "nonce": "0x10a",
        "chainId": "0xa869"
      },
      "additionalContracts": [],
      "isFixedGasLimit": false
    },
    {
      "hash": "0x2366410fc84381a3ae4d8b9bc49bc612e1ca732680c31492197bbbad97bac40e",
      "transactionType": "CALL",
      "contractName": "RuleEngineComplianceProvider",
      "contractAddress": "0xe6b7ecdf535122d02465adc85659ab6dbf41bc4a",
      "function": "setAllowedAsset(bytes32,bool)",
      "arguments": [
        "0xcdcac76f717eaf570f9c540821a4da68ccc36596a054f9750352bf886e85243b",
        "true"
      ],
      "transaction": {
        "from": "0x837171dce4161927795c61524e92260b0bdaeb70",
        "to": "0xe6b7ecdf535122d02465adc85659ab6dbf41bc4a",
        "gas": "0x115bc",
        "value": "0x0",
        "input": "0x67612083cdcac76f717eaf570f9c540821a4da68ccc36596a054f9750352bf886e85243b0000000000000000000000000000000000000000000000000000000000000001",
        "nonce": "0x10b",
        "chainId": "0xa869"
      },
      "additionalContracts": [],
      "isFixedGasLimit": false
    },
    {
      "hash": "0x5c613340c48e7d6013cade0890a0266cdc9085183ae9f1836bbe147de26b21e1",
      "transactionType": "CALL",
      "contractName": "RuleEngineComplianceProvider",
      "contractAddress": "0xe6b7ecdf535122d02465adc85659ab6dbf41bc4a",
      "function": "setAllowedAction(uint8,bool)",
      "arguments": [
        "0",
        "true"
      ],
      "transaction": {
        "from": "0x837171dce4161927795c61524e92260b0bdaeb70",
        "to": "0xe6b7ecdf535122d02465adc85659ab6dbf41bc4a",
        "gas": "0x12418",
        "value": "0x0",
        "input": "0x3235746000000000000000000000000000000000000000000000000000000000000000000000000000000000000000000000000000000000000000000000000000000001",
        "nonce": "0x10c",
        "chainId": "0xa869"
      },
      "additionalContracts": [],
      "isFixedGasLimit": false
    },
    {
      "hash": "0x34ac5ac8d72c459cb9c4d31a2e254fea0eea003ed0a64360fb877b206399da9f",
      "transactionType": "CALL",
      "contractName": "RuleEngineComplianceProvider",
      "contractAddress": "0xe6b7ecdf535122d02465adc85659ab6dbf41bc4a",
      "function": "setChainJurisdiction(uint64,bytes32)",
      "arguments": [
        "2",
        "0x627fe66dd064a0a7d686e05b87b04d5a7c585907afae1f0c65ab27fa379ca189"
      ],
      "transaction": {
        "from": "0x837171dce4161927795c61524e92260b0bdaeb70",
        "to": "0xe6b7ecdf535122d02465adc85659ab6dbf41bc4a",
        "gas": "0x11626",
        "value": "0x0",
        "input": "0x7ff439430000000000000000000000000000000000000000000000000000000000000002627fe66dd064a0a7d686e05b87b04d5a7c585907afae1f0c65ab27fa379ca189",
        "nonce": "0x10d",
        "chainId": "0xa869"
      },
      "additionalContracts": [],
      "isFixedGasLimit": false
    },
    {
      "hash": "0x44b7460c6faec5217dc2a93aee0e079ef0ad6eb8cc39c067e20ada4ad1f03f41",
      "transactionType": "CALL",
      "contractName": "RuleEngineComplianceProvider",
      "contractAddress": "0xe6b7ecdf535122d02465adc85659ab6dbf41bc4a",
      "function": "setChainJurisdiction(uint64,bytes32)",
      "arguments": [
        "1",
        "0xaef300f897e319d4eccbf3de51155aca9189c469356c1058d5ec6f354eadc64a"
      ],
      "transaction": {
        "from": "0x837171dce4161927795c61524e92260b0bdaeb70",
        "to": "0xe6b7ecdf535122d02465adc85659ab6dbf41bc4a",
        "gas": "0x11615",
        "value": "0x0",
        "input": "0x7ff439430000000000000000000000000000000000000000000000000000000000000001aef300f897e319d4eccbf3de51155aca9189c469356c1058d5ec6f354eadc64a",
        "nonce": "0x10e",
        "chainId": "0xa869"
      },
      "additionalContracts": [],
      "isFixedGasLimit": false
    },
    {
      "hash": "0x77411fc6b9d903c1b2eeb231d39df2759c2f5830ccd22c6739afe51766c3e2c9",
      "transactionType": "CALL",
      "contractName": "RuleEngineComplianceProvider",
      "contractAddress": "0xe6b7ecdf535122d02465adc85659ab6dbf41bc4a",
      "function": "setInvestorClassification(bytes32,uint8)",
      "arguments": [
        "0xbcdb6cfabeedf4cb75ce3843392e397abf95b450b1712991ca6db65da2a9cf8c",
        "3"
      ],
      "transaction": {
        "from": "0x837171dce4161927795c61524e92260b0bdaeb70",
        "to": "0xe6b7ecdf535122d02465adc85659ab6dbf41bc4a",
        "gas": "0x117ef",
        "value": "0x0",
        "input": "0xcd70fa4bbcdb6cfabeedf4cb75ce3843392e397abf95b450b1712991ca6db65da2a9cf8c0000000000000000000000000000000000000000000000000000000000000003",
        "nonce": "0x10f",
        "chainId": "0xa869"
      },
      "additionalContracts": [],
      "isFixedGasLimit": false
    },
    {
      "hash": "0x8e726733b73f1c1c9b755e8b6f0fd03e50167c7313f3a4bb1e8cb219e1f2c108",
      "transactionType": "CALL",
      "contractName": "RuleEngineComplianceProvider",
      "contractAddress": "0xe6b7ecdf535122d02465adc85659ab6dbf41bc4a",
      "function": "setMinimumClassification(uint8)",
      "arguments": [
        "3"
      ],
      "transaction": {
        "from": "0x837171dce4161927795c61524e92260b0bdaeb70",
        "to": "0xe6b7ecdf535122d02465adc85659ab6dbf41bc4a",
        "gas": "0x1107b",
        "value": "0x0",
        "input": "0x2c03ca080000000000000000000000000000000000000000000000000000000000000003",
        "nonce": "0x110",
        "chainId": "0xa869"
      },
      "additionalContracts": [],
      "isFixedGasLimit": false
    },
    {
      "hash": "0x1e56b7b705197ac99f0078d931c45f44512d4a1faa57d7ddcbf1930b810bebea",
      "transactionType": "CALL",
      "contractName": "RuleEngineComplianceProvider",
      "contractAddress": "0xe6b7ecdf535122d02465adc85659ab6dbf41bc4a",
      "function": "setMaxTransferAmount(bytes32,uint256)",
      "arguments": [
        "0xcdcac76f717eaf570f9c540821a4da68ccc36596a054f9750352bf886e85243b",
        "100000000000000000000000"
      ],
      "transaction": {
        "from": "0x837171dce4161927795c61524e92260b0bdaeb70",
        "to": "0xe6b7ecdf535122d02465adc85659ab6dbf41bc4a",
        "gas": "0x1152c",
        "value": "0x0",
        "input": "0x3960c108cdcac76f717eaf570f9c540821a4da68ccc36596a054f9750352bf886e85243b00000000000000000000000000000000000000000000152d02c7e14af6800000",
        "nonce": "0x111",
        "chainId": "0xa869"
      },
      "additionalContracts": [],
      "isFixedGasLimit": false
    },
    {
      "hash": "0x9a4fd79ed7e0e5a147757c21c04caf9bfc854fb63275e501c2d8c58ef3e7a3fb",
      "transactionType": "CALL",
      "contractName": "RuleEngineComplianceProvider",
      "contractAddress": "0xe6b7ecdf535122d02465adc85659ab6dbf41bc4a",
      "function": "setMaxHolding(bytes32,uint256)",
      "arguments": [
        "0xcdcac76f717eaf570f9c540821a4da68ccc36596a054f9750352bf886e85243b",
        "1000000000000000000000000"
      ],
      "transaction": {
        "from": "0x837171dce4161927795c61524e92260b0bdaeb70",
        "to": "0xe6b7ecdf535122d02465adc85659ab6dbf41bc4a",
        "gas": "0x115d3",
        "value": "0x0",
        "input": "0x731b0270cdcac76f717eaf570f9c540821a4da68ccc36596a054f9750352bf886e85243b00000000000000000000000000000000000000000000d3c21bcecceda1000000",
        "nonce": "0x112",
        "chainId": "0xa869"
      },
      "additionalContracts": [],
      "isFixedGasLimit": false
    },
    {
      "hash": "0x139159c7312eef7183f9ecb58401433a16d96e22743c427741bee96f979651a3",
      "transactionType": "CALL",
      "contractName": "RuleEngineComplianceProvider",
      "contractAddress": "0xe6b7ecdf535122d02465adc85659ab6dbf41bc4a",
      "function": "setPolicyVersion(bytes32)",
      "arguments": [
        "0x98108865e5bd7d40763f409b7dfdd12439d0676b805aecfb6c344b67b552a3b7"
      ],
      "transaction": {
        "from": "0x837171dce4161927795c61524e92260b0bdaeb70",
        "to": "0xe6b7ecdf535122d02465adc85659ab6dbf41bc4a",
        "gas": "0x18e2d",
        "value": "0x0",
        "input": "0xde0ed86f98108865e5bd7d40763f409b7dfdd12439d0676b805aecfb6c344b67b552a3b7",
        "nonce": "0x113",
        "chainId": "0xa869"
      },
      "additionalContracts": [],
      "isFixedGasLimit": false
    },
    {
      "hash": "0xad2f47e22ae41733d0b7257634019342ea780594a2de36fd1d4142f0feb02a0f",
      "transactionType": "CALL",
      "contractName": "CCIPTransportProvider",
      "contractAddress": "0x97e9d395aea458d55f0bb776f620c3e9401ecff7",
      "function": "setChainSelector(uint64,uint64)",
      "arguments": [
        "2",
        "14767482510784806043"
      ],
      "transaction": {
        "from": "0x837171dce4161927795c61524e92260b0bdaeb70",
        "to": "0x97e9d395aea458d55f0bb776f620c3e9401ecff7",
        "gas": "0x1a5da",
        "value": "0x0",
        "input": "0x78b7926e0000000000000000000000000000000000000000000000000000000000000002000000000000000000000000000000000000000000000000ccf0a31a221f3c9b",
        "nonce": "0x114",
        "chainId": "0xa869"
      },
      "additionalContracts": [],
      "isFixedGasLimit": false
    },
    {
      "hash": "0xb6c5f3cecb3d0301b44fd2c968379cfab29b21521dbb23f37ce5073253574cb1",
      "transactionType": "CALL",
      "contractName": "CCIPTransportProvider",
      "contractAddress": "0x97e9d395aea458d55f0bb776f620c3e9401ecff7",
      "function": "setChainSelector(uint64,uint64)",
      "arguments": [
        "1",
        "16015286601757825753"
      ],
      "transaction": {
        "from": "0x837171dce4161927795c61524e92260b0bdaeb70",
        "to": "0x97e9d395aea458d55f0bb776f620c3e9401ecff7",
        "gas": "0x1a5da",
        "value": "0x0",
        "input": "0x78b7926e0000000000000000000000000000000000000000000000000000000000000001000000000000000000000000000000000000000000000000de41ba4fc9d91ad9",
        "nonce": "0x115",
        "chainId": "0xa869"
      },
      "additionalContracts": [],
      "isFixedGasLimit": false
    },
    {
      "hash": "0x97ef0757971e6c38b7513a16222f1221e0037a233a34ba9dd3eb5afdca8eb8f2",
      "transactionType": "CALL",
      "contractName": null,
      "contractAddress": "0x97e9d395aea458d55f0bb776f620c3e9401ecff7",
      "function": null,
      "arguments": null,
      "transaction": {
        "from": "0x837171dce4161927795c61524e92260b0bdaeb70",
        "to": "0x97e9d395aea458d55f0bb776f620c3e9401ecff7",
        "gas": "0x785a",
        "value": "0x6f05b59d3b20000",
        "input": "0x",
        "nonce": "0x116",
        "chainId": "0xa869"
      },
      "additionalContracts": [],
      "isFixedGasLimit": false
    },
    {
      "hash": "0x59a3b25cb14c8e0c2ab50aa37c0b79c44e57e2094f74a406ae314fb383f614fb",
      "transactionType": "CALL",
      "contractName": null,
      "contractAddress": "0x0b9d5d9136855f6fec3c0993fee6e9ce8a297846",
      "function": null,
      "arguments": null,
      "transaction": {
        "from": "0x837171dce4161927795c61524e92260b0bdaeb70",
        "to": "0x0b9d5d9136855f6fec3c0993fee6e9ce8a297846",
        "gas": "0x1287c",
        "value": "0x0",
        "input": "0xa9059cbb00000000000000000000000097e9d395aea458d55f0bb776f620c3e9401ecff70000000000000000000000000000000000000000000000008ac7230489e80000",
        "nonce": "0x117",
        "chainId": "0xa869"
      },
      "additionalContracts": [],
      "isFixedGasLimit": false
    },
    {
      "hash": "0xd83c29da6970cec8aa80573cbeb57f703c45f7db3494d4f03375304b0aa885aa",
      "transactionType": "CALL",
      "contractName": "CCIPTransportProvider",
      "contractAddress": "0x97e9d395aea458d55f0bb776f620c3e9401ecff7",
      "function": "approveRouterLink()",
      "arguments": [],
      "transaction": {
        "from": "0x837171dce4161927795c61524e92260b0bdaeb70",
        "to": "0x97e9d395aea458d55f0bb776f620c3e9401ecff7",
        "gas": "0x1278f",
        "value": "0x0",
        "input": "0x036e3f09",
        "nonce": "0x118",
        "chainId": "0xa869"
      },
      "additionalContracts": [],
      "isFixedGasLimit": false
    }
  ],
  "receipts": [
    {
      "status": "0x1",
      "cumulativeGasUsed": "0x139717",
      "logs": [],
      "logsBloom": "0x00000000000000000000000000000000000000000000000000000000000000000000000000000000000000000000000000000000000000000000000000000000000000000000000000000000000000000000000000000000000000000000000000000000000000000000000000000000000000000000000000000000000000000000000000000000000000000000000000000000000000000000000000000000000000000000000000000000000000000000000000000000000000000000000000000000000000000000000000000000000000000000000000000000000000000000000000000000000000000000000000000000000000000000000000000000",
      "type": "0x2",
      "transactionHash": "0xb339672932c176cf3c47664e90e633e6693905aaa87796b7c99126c657dd307b",
      "transactionIndex": "0x0",
      "blockHash": "0x7da42e408dcc10d3d682e2f8bd9d0086c1ae6dc6fdfc4704b1cabd9a8307cce6",
      "blockNumber": "0x367f3e9",
      "gasUsed": "0x139717",
      "effectiveGasPrice": "0x5a5e33a7",
      "from": "0x837171dce4161927795c61524e92260b0bdaeb70",
      "to": null,
      "contractAddress": "0xe6b7ecdf535122d02465adc85659ab6dbf41bc4a"
    },
    {
      "status": "0x1",
      "cumulativeGasUsed": "0x272ae8",
      "logs": [],
      "logsBloom": "0x00000000000000000000000000000000000000000000000000000000000000000000000000000000000000000000000000000000000000000000000000000000000000000000000000000000000000000000000000000000000000000000000000000000000000000000000000000000000000000000000000000000000000000000000000000000000000000000000000000000000000000000000000000000000000000000000000000000000000000000000000000000000000000000000000000000000000000000000000000000000000000000000000000000000000000000000000000000000000000000000000000000000000000000000000000000",
      "type": "0x2",
      "transactionHash": "0xd91de8f16852df991a66e85b5dc95571711b0dc930f5058678a9825b19881ddc",
      "transactionIndex": "0x1",
      "blockHash": "0x7da42e408dcc10d3d682e2f8bd9d0086c1ae6dc6fdfc4704b1cabd9a8307cce6",
      "blockNumber": "0x367f3e9",
      "gasUsed": "0x1393d1",
      "effectiveGasPrice": "0x5a5e33a7",
      "from": "0x837171dce4161927795c61524e92260b0bdaeb70",
      "to": null,
      "contractAddress": "0x97e9d395aea458d55f0bb776f620c3e9401ecff7"
    },
    {
      "status": "0x1",
      "cumulativeGasUsed": "0x200e7a",
      "logs": [],
      "logsBloom": "0x00000000000000000000000000000000000000000000000000000000000000000000000000000000000000000000000000000000000000000000000000000000000000000000000000000000000000000000000000000000000000000000000000000000000000000000000000000000000000000000000000000000000000000000000000000000000000000000000000000000000000000000000000000000000000000000000000000000000000000000000000000000000000000000000000000000000000000000000000000000000000000000000000000000000000000000000000000000000000000000000000000000000000000000000000000000",
      "type": "0x2",
      "transactionHash": "0xad2f47e22ae41733d0b7257634019342ea780594a2de36fd1d4142f0feb02a0f",
      "transactionIndex": "0x0",
      "blockHash": "0x5d62cd43922e330060683ee7e027dc59d2664711db3d923feafb0a600953d69a",
      "blockNumber": "0x367f3ea",
      "gasUsed": "0x200e7a",
      "effectiveGasPrice": "0x5a5e33a7",
      "from": "0x837171dce4161927795c61524e92260b0bdaeb70",
      "to": null,
      "contractAddress": "0xe935cf3b8cf5e30c7238731df14985cfc18baeab"
    },
    {
      "status": "0x1",
      "cumulativeGasUsed": "0x20d695",
      "logs": [
        {
          "address": "0x576fda6522b2490e872356e3c8adf70d3361cdb9",
          "topics": [
            "0x2f8788117e7eff1d82e926ec794901d17c78024a50270940304540a733656f0d",
            "0x52ba824bfabc2bcfcdf7f0edbb486ebb05e1836c90e78047efeb949990f72e5f",
            "0x000000000000000000000000e935cf3b8cf5e30c7238731df14985cfc18baeab",
            "0x000000000000000000000000837171dce4161927795c61524e92260b0bdaeb70"
          ],
          "data": "0x",
          "blockHash": "0x5d62cd43922e330060683ee7e027dc59d2664711db3d923feafb0a600953d69a",
          "blockNumber": "0x367f3ea",
          "transactionHash": "0x06b1ab0991c1536a15d255da8cce6a2a54606e9d9062d7e5ae658352eb8f1ea2",
          "transactionIndex": "0x1",
          "logIndex": "0x0",
          "removed": false
        }
      ],
      "logsBloom": "0x00000004000000000000000000000000000000000000000000000000000000000000200000000000000000000000000000000000000000008000000000000000000400000000000000200000000000000000000001000000000000000000000004000000080000000000000000000000000000000000000001000000000000000000000000000000008000000000000000000000000000000000000000000000000000000000000000000000002000000000000000000000001000000000000040000000000000000000000000000000000000000000000900000000000000000000000000000000000000000000000000000000000000000000000000000000",
      "type": "0x2",
      "transactionHash": "0x06b1ab0991c1536a15d255da8cce6a2a54606e9d9062d7e5ae658352eb8f1ea2",
      "transactionIndex": "0x1",
      "blockHash": "0x5d62cd43922e330060683ee7e027dc59d2664711db3d923feafb0a600953d69a",
      "blockNumber": "0x367f3ea",
      "gasUsed": "0xc81b",
      "effectiveGasPrice": "0x5a5e33a7",
      "from": "0x837171dce4161927795c61524e92260b0bdaeb70",
      "to": "0x576fda6522b2490e872356e3c8adf70d3361cdb9",
      "contractAddress": null
    },
    {
      "status": "0x1",
      "cumulativeGasUsed": "0x214735",
      "logs": [],
      "logsBloom": "0x00000000000000000000000000000000000000000000000000000000000000000000000000000000000000000000000000000000000000000000000000000000000000000000000000000000000000000000000000000000000000000000000000000000000000000000000000000000000000000000000000000000000000000000000000000000000000000000000000000000000000000000000000000000000000000000000000000000000000000000000000000000000000000000000000000000000000000000000000000000000000000000000000000000000000000000000000000000000000000000000000000000000000000000000000000000",
      "type": "0x2",
      "transactionHash": "0x44b7460c6faec5217dc2a93aee0e079ef0ad6eb8cc39c067e20ada4ad1f03f41",
      "transactionIndex": "0x2",
      "blockHash": "0x5d62cd43922e330060683ee7e027dc59d2664711db3d923feafb0a600953d69a",
      "blockNumber": "0x367f3ea",
      "gasUsed": "0x70a0",
      "effectiveGasPrice": "0x5a5e33a7",
      "from": "0x837171dce4161927795c61524e92260b0bdaeb70",
      "to": "0x576fda6522b2490e872356e3c8adf70d3361cdb9",
      "contractAddress": null
    },
    {
      "status": "0x1",
      "cumulativeGasUsed": "0x221049",
      "logs": [
        {
          "address": "0xe6b7ecdf535122d02465adc85659ab6dbf41bc4a",
          "topics": [
            "0x065b24e6788841286f34668faf14826f38f62d0b0f7a929a456dd49d61e03bcf",
            "0x92a1688cfee0e1cc8c497a7097f75a44359de937215c5462528914e08f82ca3a"
          ],
          "data": "0x",
          "blockHash": "0x5d62cd43922e330060683ee7e027dc59d2664711db3d923feafb0a600953d69a",
          "blockNumber": "0x367f3ea",
          "transactionHash": "0xd83c29da6970cec8aa80573cbeb57f703c45f7db3494d4f03375304b0aa885aa",
          "transactionIndex": "0x3",
          "logIndex": "0x1",
          "removed": false
        }
      ],
      "logsBloom": "0x01000000000000000000000000000000000200000000000000000000000000000000000000000000000000000000000000000000000600000000000000000000000000000000000000000000000000000000000000000000000000000000000000000000000000000000000000000000000000000040000000000000000000000000000000020000000000000000000000000000000000000000000000000000000000000000000000000000000000000000200004000000000000000000000000000000000000000000000000000000000000000000000040000000000000000000000000000000000000000000000000000000000000000000000000000000",
      "type": "0x2",
      "transactionHash": "0xd83c29da6970cec8aa80573cbeb57f703c45f7db3494d4f03375304b0aa885aa",
      "transactionIndex": "0x3",
      "blockHash": "0x5d62cd43922e330060683ee7e027dc59d2664711db3d923feafb0a600953d69a",
      "blockNumber": "0x367f3ea",
      "gasUsed": "0xc914",
      "effectiveGasPrice": "0x5a5e33a7",
      "from": "0x837171dce4161927795c61524e92260b0bdaeb70",
      "to": "0xe6b7ecdf535122d02465adc85659ab6dbf41bc4a",
      "contractAddress": null
    },
    {
      "status": "0x1",
      "cumulativeGasUsed": "0x22d802",
      "logs": [
        {
          "address": "0xe6b7ecdf535122d02465adc85659ab6dbf41bc4a",
          "topics": [
            "0x065b24e6788841286f34668faf14826f38f62d0b0f7a929a456dd49d61e03bcf",
            "0x61fea4e56c380a0fb02b80c2f5ed2f68bea0f92ff61a83e4c4bbe06bcf11fc40"
          ],
          "data": "0x",
          "blockHash": "0x5d62cd43922e330060683ee7e027dc59d2664711db3d923feafb0a600953d69a",
          "blockNumber": "0x367f3ea",
          "transactionHash": "0x9a4fd79ed7e0e5a147757c21c04caf9bfc854fb63275e501c2d8c58ef3e7a3fb",
          "transactionIndex": "0x4",
          "logIndex": "0x2",
          "removed": false
        }
      ],
      "logsBloom": "0x00000000000000000000000000000000000200000000000000000000000020000000000000000000000000000000000000000000000200000000000000000000000000000002000000000000000000000000000000000000000000000000000000000000000000000000000000000000000000000040000000000000000000000000000000000000000000000000000000000000000000000000000000000000000000000000000000000000000000000000200004000000000000000000000000000000010000000000000000000000000000000000000040000000000000000000000000000000000000000000000000000000000000000000000000000000",
      "type": "0x2",
      "transactionHash": "0x9a4fd79ed7e0e5a147757c21c04caf9bfc854fb63275e501c2d8c58ef3e7a3fb",
      "transactionIndex": "0x4",
      "blockHash": "0x5d62cd43922e330060683ee7e027dc59d2664711db3d923feafb0a600953d69a",
      "blockNumber": "0x367f3ea",
      "gasUsed": "0xc7b9",
      "effectiveGasPrice": "0x5a5e33a7",
      "from": "0x837171dce4161927795c61524e92260b0bdaeb70",
      "to": "0xe6b7ecdf535122d02465adc85659ab6dbf41bc4a",
      "contractAddress": null
    },
    {
      "status": "0x1",
      "cumulativeGasUsed": "0x23a162",
      "logs": [
        {
          "address": "0xe6b7ecdf535122d02465adc85659ab6dbf41bc4a",
          "topics": [
            "0x065b24e6788841286f34668faf14826f38f62d0b0f7a929a456dd49d61e03bcf",
            "0x136a9cfb614ef4b629e2f6ed458ce61739a6df7283ad37792b610057ae170c2f"
          ],
          "data": "0x",
          "blockHash": "0x5d62cd43922e330060683ee7e027dc59d2664711db3d923feafb0a600953d69a",
          "blockNumber": "0x367f3ea",
          "transactionHash": "0xd8d07d6b3ead5a0f84ff1308301d929fdff1227bf319c1ba28c1c53627e0f51e",
          "transactionIndex": "0x5",
          "logIndex": "0x3",
          "removed": false
        }
      ],
      "logsBloom": "0x00000000000000000000000000000000000200000000000000000000000000000000000000000000000000000000000000000000000200000000000000000000000000000000000000000000000000000000000000000000000000000000000000000000000000000000000000000000000000000040000000000000000000000000000000000000000000000000000000000000000000000000000000000000000000000000800000000000000000000000200004000000000000000000000000000080000000000000000000000000000000000000000040000000000000000000000000000800000000000000000000000000000000000000000000000000",
      "type": "0x2",
      "transactionHash": "0xd8d07d6b3ead5a0f84ff1308301d929fdff1227bf319c1ba28c1c53627e0f51e",
      "transactionIndex": "0x5",
      "blockHash": "0x5d62cd43922e330060683ee7e027dc59d2664711db3d923feafb0a600953d69a",
      "blockNumber": "0x367f3ea",
      "gasUsed": "0xc960",
      "effectiveGasPrice": "0x5a5e33a7",
      "from": "0x837171dce4161927795c61524e92260b0bdaeb70",
      "to": "0xe6b7ecdf535122d02465adc85659ab6dbf41bc4a",
      "contractAddress": null
    },
    {
      "status": "0x1",
      "cumulativeGasUsed": "0x246ab6",
      "logs": [
        {
          "address": "0xe6b7ecdf535122d02465adc85659ab6dbf41bc4a",
          "topics": [
            "0x065b24e6788841286f34668faf14826f38f62d0b0f7a929a456dd49d61e03bcf",
            "0x29c9fc4f8468f57b63c834544cb30d19ff430d8239641ec2211ec14cd785f94a"
          ],
          "data": "0x",
          "blockHash": "0x5d62cd43922e330060683ee7e027dc59d2664711db3d923feafb0a600953d69a",
          "blockNumber": "0x367f3ea",
          "transactionHash": "0x2366410fc84381a3ae4d8b9bc49bc612e1ca732680c31492197bbbad97bac40e",
          "transactionIndex": "0x6",
          "logIndex": "0x4",
          "removed": false
        }
      ],
      "logsBloom": "0x00000000000000000000000000000000000200000000000000000000000000000000000000000000000000000000000000000000000200000000000000000200000000000000000000000000000000000000000000000000000000000000000000000000000000000000000000000000000000000040000000000000000000000000000000000000000000000000000000000000000020000000000000000000000000000000000000000000000000000000200004000000000000000000000000000000000000000000000000000000000000000000000040000000000000000000000000000000000000000000000001000000000000000000000000000000",
      "type": "0x2",
      "transactionHash": "0x2366410fc84381a3ae4d8b9bc49bc612e1ca732680c31492197bbbad97bac40e",
      "transactionIndex": "0x6",
      "blockHash": "0x5d62cd43922e330060683ee7e027dc59d2664711db3d923feafb0a600953d69a",
      "blockNumber": "0x367f3ea",
      "gasUsed": "0xc954",
      "effectiveGasPrice": "0x5a5e33a7",
      "from": "0x837171dce4161927795c61524e92260b0bdaeb70",
      "to": "0xe6b7ecdf535122d02465adc85659ab6dbf41bc4a",
      "contractAddress": null
    },
    {
      "status": "0x1",
      "cumulativeGasUsed": "0x253562",
      "logs": [
        {
          "address": "0xe6b7ecdf535122d02465adc85659ab6dbf41bc4a",
          "topics": [
            "0x065b24e6788841286f34668faf14826f38f62d0b0f7a929a456dd49d61e03bcf",
            "0xa6392c3cbb0bbe7fa47b0fe3d2f0ebcaebed73079a9e13bb6031e0aeb2c6e295"
          ],
          "data": "0x",
          "blockHash": "0x5d62cd43922e330060683ee7e027dc59d2664711db3d923feafb0a600953d69a",
          "blockNumber": "0x367f3ea",
          "transactionHash": "0x8e726733b73f1c1c9b755e8b6f0fd03e50167c7313f3a4bb1e8cb219e1f2c108",
          "transactionIndex": "0x7",
          "logIndex": "0x5",
          "removed": false
        }
      ],
      "logsBloom": "0x00000000000000000000000000000000000200000000000000000000000000000000000000000000000000000000000000000000000200000000000000000000000000000000000000000000000000000000000000000000000000000000000000000000000000000000000000000000000000000040000000000000000000000001000000000000000000000000000000100000000000000000000000000000000000000000000000000000000800000000200004000000000000000000000000000000000000000000000000000000000000000000000040000000000000000000000000000000000000000000000000000000000000000000000000000000",
      "type": "0x2",
      "transactionHash": "0x8e726733b73f1c1c9b755e8b6f0fd03e50167c7313f3a4bb1e8cb219e1f2c108",
      "transactionIndex": "0x7",
      "blockHash": "0x5d62cd43922e330060683ee7e027dc59d2664711db3d923feafb0a600953d69a",
      "blockNumber": "0x367f3ea",
      "gasUsed": "0xcaac",
      "effectiveGasPrice": "0x5a5e33a7",
      "from": "0x837171dce4161927795c61524e92260b0bdaeb70",
      "to": "0xe6b7ecdf535122d02465adc85659ab6dbf41bc4a",
      "contractAddress": null
    },
    {
      "status": "0x1",
      "cumulativeGasUsed": "0x25faa8",
      "logs": [
        {
          "address": "0xe6b7ecdf535122d02465adc85659ab6dbf41bc4a",
          "topics": [
            "0x065b24e6788841286f34668faf14826f38f62d0b0f7a929a456dd49d61e03bcf",
            "0xbdd01ecc9e41d4df0ad58cb35d6dcd7e0c589f48041c40fe0372dd0cc4062e28"
          ],
          "data": "0x",
          "blockHash": "0x5d62cd43922e330060683ee7e027dc59d2664711db3d923feafb0a600953d69a",
          "blockNumber": "0x367f3ea",
          "transactionHash": "0x1fa3d4068324ce6b503e9e72aa7a4441199b14d6f8145e726fd14e57deee6f0a",
          "transactionIndex": "0x8",
          "logIndex": "0x6",
          "removed": false
        }
      ],
      "logsBloom": "0x00000000000000000000000000000000000200000008000000000000000000000000000000000000000000000000000000000000000200000000000000000000000000000000000000000000000000000000000000000000000000000000000000000000000000000000000000000000000000000040000000000000000000000000000000000000000000000000000000000000000000000000000000000000000000000000000000000000000000000000200004000000000000000000000000000000000000000000000000000000000000000000000040000000000000000000000000000000000000000000000000000000000400000000000000002000",
      "type": "0x2",
      "transactionHash": "0x1fa3d4068324ce6b503e9e72aa7a4441199b14d6f8145e726fd14e57deee6f0a",
      "transactionIndex": "0x8",
      "blockHash": "0x5d62cd43922e330060683ee7e027dc59d2664711db3d923feafb0a600953d69a",
      "blockNumber": "0x367f3ea",
      "gasUsed": "0xc546",
      "effectiveGasPrice": "0x5a5e33a7",
      "from": "0x837171dce4161927795c61524e92260b0bdaeb70",
      "to": "0xe6b7ecdf535122d02465adc85659ab6dbf41bc4a",
      "contractAddress": null
    },
    {
      "status": "0x1",
      "cumulativeGasUsed": "0x26c354",
      "logs": [
        {
          "address": "0xe6b7ecdf535122d02465adc85659ab6dbf41bc4a",
          "topics": [
            "0x065b24e6788841286f34668faf14826f38f62d0b0f7a929a456dd49d61e03bcf",
            "0x9fb2383851022b5da9fe6146d1dfc8a44c02206253d16be4086beea215776e67"
          ],
          "data": "0x",
          "blockHash": "0x5d62cd43922e330060683ee7e027dc59d2664711db3d923feafb0a600953d69a",
          "blockNumber": "0x367f3ea",
          "transactionHash": "0x97ef0757971e6c38b7513a16222f1221e0037a233a34ba9dd3eb5afdca8eb8f2",
          "transactionIndex": "0x9",
          "logIndex": "0x7",
          "removed": false
        }
      ],
      "logsBloom": "0x00000000000000000000000000000000000200000000000000000000000000000000000000000000000000000000000000000000000200000000000002000000000000000000000000000000000000000000000000000000000000000000000000000000000000000000000000000000000000000040001000000000000000000000000000000000000000000000000000000000000000000000000000000000000000000000000000000000000000000000200004000000000000000000000000000000000000000000000000000000000000000000000040000000000004000000000000000000000000000000000000000000000000000000000000000000",
      "type": "0x2",
      "transactionHash": "0x97ef0757971e6c38b7513a16222f1221e0037a233a34ba9dd3eb5afdca8eb8f2",
      "transactionIndex": "0x9",
      "blockHash": "0x5d62cd43922e330060683ee7e027dc59d2664711db3d923feafb0a600953d69a",
      "blockNumber": "0x367f3ea",
      "gasUsed": "0xc8ac",
      "effectiveGasPrice": "0x5a5e33a7",
      "from": "0x837171dce4161927795c61524e92260b0bdaeb70",
      "to": "0xe6b7ecdf535122d02465adc85659ab6dbf41bc4a",
      "contractAddress": null
    },
    {
      "status": "0x1",
      "cumulativeGasUsed": "0x278c78",
      "logs": [
        {
          "address": "0xe6b7ecdf535122d02465adc85659ab6dbf41bc4a",
          "topics": [
            "0x065b24e6788841286f34668faf14826f38f62d0b0f7a929a456dd49d61e03bcf",
            "0x65f5cef54312471535b8084c6fbea4a47cca3102ba119b44d012655b66a92ebd"
          ],
          "data": "0x",
          "blockHash": "0x5d62cd43922e330060683ee7e027dc59d2664711db3d923feafb0a600953d69a",
          "blockNumber": "0x367f3ea",
          "transactionHash": "0x5c613340c48e7d6013cade0890a0266cdc9085183ae9f1836bbe147de26b21e1",
          "transactionIndex": "0xa",
          "logIndex": "0x8",
          "removed": false
        }
      ],
      "logsBloom": "0x00000000000000000000000000000000000200000000000000000000000000000000000000000000000000000000000000000000000200000000000000000000000000000000000000000000000002000000000000000040000000000000000000000000000000000000000000000000000000000040000000000000000000000000000000000000000000000000000000000000000000000000000000000000000000000000000000000000000000000000200004000000000000000000000000000000000000000000000000000000000000000000000040000000000000000000000000000000000000000000000000000000000010000000000000000000",
      "type": "0x2",
      "transactionHash": "0x5c613340c48e7d6013cade0890a0266cdc9085183ae9f1836bbe147de26b21e1",
      "transactionIndex": "0xa",
      "blockHash": "0x5d62cd43922e330060683ee7e027dc59d2664711db3d923feafb0a600953d69a",
      "blockNumber": "0x367f3ea",
      "gasUsed": "0xc924",
      "effectiveGasPrice": "0x5a5e33a7",
      "from": "0x837171dce4161927795c61524e92260b0bdaeb70",
      "to": "0xe6b7ecdf535122d02465adc85659ab6dbf41bc4a",
      "contractAddress": null
    },
    {
      "status": "0x1",
      "cumulativeGasUsed": "0x28acbe",
      "logs": [
        {
          "address": "0xe6b7ecdf535122d02465adc85659ab6dbf41bc4a",
          "topics": [
            "0xc72071dba26fc10191641f1a2fe6287281c12f7b35da6af84d3abd15e41f4248",
            "0x0000000000000000000000000000000000000000000000000000000000000000",
            "0x98108865e5bd7d40763f409b7dfdd12439d0676b805aecfb6c344b67b552a3b7"
          ],
          "data": "0x",
          "blockHash": "0x5d62cd43922e330060683ee7e027dc59d2664711db3d923feafb0a600953d69a",
          "blockNumber": "0x367f3ea",
          "transactionHash": "0x1e56b7b705197ac99f0078d931c45f44512d4a1faa57d7ddcbf1930b810bebea",
          "transactionIndex": "0xb",
          "logIndex": "0x9",
          "removed": false
        }
      ],
      "logsBloom": "0x00000000000000000000000000000000000000000000000000000000000000000000000000000000000000000000000000000000000000000000000000000000000000002000000000000000000000000000001000000000000000000000000000000000020000000000000000000800000000000000000000000000000000000000000000000000000000000000000000000000000000000000000080000000000000000000000000000000000000000000200004400000000000000020000000000000000000000000000000000000000000000000004040000000000020000000000000000000000000000000000000000000000000000000000000000000",
      "type": "0x2",
      "transactionHash": "0x1e56b7b705197ac99f0078d931c45f44512d4a1faa57d7ddcbf1930b810bebea",
      "transactionIndex": "0xb",
      "blockHash": "0x5d62cd43922e330060683ee7e027dc59d2664711db3d923feafb0a600953d69a",
      "blockNumber": "0x367f3ea",
      "gasUsed": "0x12046",
      "effectiveGasPrice": "0x5a5e33a7",
      "from": "0x837171dce4161927795c61524e92260b0bdaeb70",
      "to": "0xe6b7ecdf535122d02465adc85659ab6dbf41bc4a",
      "contractAddress": null
    },
    {
      "status": "0x1",
      "cumulativeGasUsed": "0x29cd31",
      "logs": [
        {
          "address": "0x97e9d395aea458d55f0bb776f620c3e9401ecff7",
          "topics": [
            "0x60533b8f4541e70ae5ca8dce4d987bed55e33ddb4f74a87fb718aa1fc5f1e4e7",
            "0x0000000000000000000000000000000000000000000000000000000000000002"
          ],
          "data": "0x000000000000000000000000000000000000000000000000ccf0a31a221f3c9b",
          "blockHash": "0x5d62cd43922e330060683ee7e027dc59d2664711db3d923feafb0a600953d69a",
          "blockNumber": "0x367f3ea",
          "transactionHash": "0x34ac5ac8d72c459cb9c4d31a2e254fea0eea003ed0a64360fb877b206399da9f",
          "transactionIndex": "0xc",
          "logIndex": "0xa",
          "removed": false
        }
      ],
      "logsBloom": "0x04000000000000000000000000000000000000000000000000000000000000000000000000000000000000000000000000000000000000000000000000000000000000000000000000000000000000000000000040000000000000000000000000000000000000000000000000000000000000000000000000000000000000000000000000000000000000000000000002000008000000000000000000000000000000000000000000000100000000000000000000000000000000000000000000000000000000100000000000000000000100000000000000000000000000000000000000000000000000000000000000000001008000000000000000000000",
      "type": "0x2",
      "transactionHash": "0x34ac5ac8d72c459cb9c4d31a2e254fea0eea003ed0a64360fb877b206399da9f",
      "transactionIndex": "0xc",
      "blockHash": "0x5d62cd43922e330060683ee7e027dc59d2664711db3d923feafb0a600953d69a",
      "blockNumber": "0x367f3ea",
      "gasUsed": "0x12073",
      "effectiveGasPrice": "0x5a5e33a7",
      "from": "0x837171dce4161927795c61524e92260b0bdaeb70",
      "to": "0x97e9d395aea458d55f0bb776f620c3e9401ecff7",
      "contractAddress": null
    },
    {
      "status": "0x1",
      "cumulativeGasUsed": "0x2aeda4",
      "logs": [
        {
          "address": "0x97e9d395aea458d55f0bb776f620c3e9401ecff7",
          "topics": [
            "0x60533b8f4541e70ae5ca8dce4d987bed55e33ddb4f74a87fb718aa1fc5f1e4e7",
            "0x0000000000000000000000000000000000000000000000000000000000000001"
          ],
          "data": "0x000000000000000000000000000000000000000000000000de41ba4fc9d91ad9",
          "blockHash": "0x5d62cd43922e330060683ee7e027dc59d2664711db3d923feafb0a600953d69a",
          "blockNumber": "0x367f3ea",
          "transactionHash": "0x139159c7312eef7183f9ecb58401433a16d96e22743c427741bee96f979651a3",
          "transactionIndex": "0xd",
          "logIndex": "0xb",
          "removed": false
        }
      ],
      "logsBloom": "0x00000000000000000000000000000000000000000000000000000000000000000000000000000000000000000000000000000000000000000000000000040000000000000000000000000000000000000000000040040000000000000000000000000000000000000000000000000000000000000000000000000000000000000000000000000000000000000000000002000008000000000000000000000000000000000000000000000000000000000000000000000000000000000000000000000000000000100000000000000000000100000000000000000000000040000000000000000000000000000000000000000001000000000000000000000000",
      "type": "0x2",
      "transactionHash": "0x139159c7312eef7183f9ecb58401433a16d96e22743c427741bee96f979651a3",
      "transactionIndex": "0xd",
      "blockHash": "0x5d62cd43922e330060683ee7e027dc59d2664711db3d923feafb0a600953d69a",
      "blockNumber": "0x367f3ea",
      "gasUsed": "0x12073",
      "effectiveGasPrice": "0x5a5e33a7",
      "from": "0x837171dce4161927795c61524e92260b0bdaeb70",
      "to": "0x97e9d395aea458d55f0bb776f620c3e9401ecff7",
      "contractAddress": null
    },
    {
      "status": "0x1",
      "cumulativeGasUsed": "0x2b3fef",
      "logs": [],
      "logsBloom": "0x00000000000000000000000000000000000000000000000000000000000000000000000000000000000000000000000000000000000000000000000000000000000000000000000000000000000000000000000000000000000000000000000000000000000000000000000000000000000000000000000000000000000000000000000000000000000000000000000000000000000000000000000000000000000000000000000000000000000000000000000000000000000000000000000000000000000000000000000000000000000000000000000000000000000000000000000000000000000000000000000000000000000000000000000000000000",
      "type": "0x2",
      "transactionHash": "0x77411fc6b9d903c1b2eeb231d39df2759c2f5830ccd22c6739afe51766c3e2c9",
      "transactionIndex": "0xe",
      "blockHash": "0x5d62cd43922e330060683ee7e027dc59d2664711db3d923feafb0a600953d69a",
      "blockNumber": "0x367f3ea",
      "gasUsed": "0x524b",
      "effectiveGasPrice": "0x5a5e33a7",
      "from": "0x837171dce4161927795c61524e92260b0bdaeb70",
      "to": "0x97e9d395aea458d55f0bb776f620c3e9401ecff7",
      "contractAddress": null
    },
    {
      "status": "0x1",
      "cumulativeGasUsed": "0x2c0aa9",
      "logs": [
        {
          "address": "0x0b9d5d9136855f6fec3c0993fee6e9ce8a297846",
          "topics": [
            "0xddf252ad1be2c89b69c2b068fc378daa952ba7f163c4a11628f55a4df523b3ef",
            "0x000000000000000000000000837171dce4161927795c61524e92260b0bdaeb70",
            "0x00000000000000000000000097e9d395aea458d55f0bb776f620c3e9401ecff7"
          ],
          "data": "0x0000000000000000000000000000000000000000000000008ac7230489e80000",
          "blockHash": "0x5d62cd43922e330060683ee7e027dc59d2664711db3d923feafb0a600953d69a",
          "blockNumber": "0x367f3ea",
          "transactionHash": "0xb6c5f3cecb3d0301b44fd2c968379cfab29b21521dbb23f37ce5073253574cb1",
          "transactionIndex": "0xf",
          "logIndex": "0xc",
          "removed": false
        }
      ],
      "logsBloom": "0x01000000000000000000000000000000000000000000000000000000000000000000200000000000000000000000000000000000000000000000000000000000000000000000000000000008000000000000000000000000000000000000000004000000082000000000000000000000000000000000000000000010000000000000000000000000000000000000000000000000000000000000000000000000000000000000000200000000000000000000000000000000000000000000000000000002000000000000000000000000000000000000000800000000000000000000000000000000000004000000000000000004000000000000000000000000",
      "type": "0x2",
      "transactionHash": "0xb6c5f3cecb3d0301b44fd2c968379cfab29b21521dbb23f37ce5073253574cb1",
      "transactionIndex": "0xf",
      "blockHash": "0x5d62cd43922e330060683ee7e027dc59d2664711db3d923feafb0a600953d69a",
      "blockNumber": "0x367f3ea",
      "gasUsed": "0xcaba",
      "effectiveGasPrice": "0x5a5e33a7",
      "from": "0x837171dce4161927795c61524e92260b0bdaeb70",
      "to": "0x0b9d5d9136855f6fec3c0993fee6e9ce8a297846",
      "contractAddress": null
    },
    {
      "status": "0x1",
      "cumulativeGasUsed": "0x2ce0a5",
      "logs": [
        {
          "address": "0x0b9d5d9136855f6fec3c0993fee6e9ce8a297846",
          "topics": [
            "0x8c5be1e5ebec7d5bd14f71427d1e84f3dd0314c0f7b2291e5b200ac8c7c3b925",
            "0x00000000000000000000000097e9d395aea458d55f0bb776f620c3e9401ecff7",
            "0x000000000000000000000000f694e193200268f9a4868e4aa017a0118c9a8177"
          ],
          "data": "0xffffffffffffffffffffffffffffffffffffffffffffffffffffffffffffffff",
          "blockHash": "0x5d62cd43922e330060683ee7e027dc59d2664711db3d923feafb0a600953d69a",
          "blockNumber": "0x367f3ea",
          "transactionHash": "0x59a3b25cb14c8e0c2ab50aa37c0b79c44e57e2094f74a406ae314fb383f614fb",
          "transactionIndex": "0x10",
          "logIndex": "0xd",
          "removed": false
        }
      ],
      "logsBloom": "0x01000000000000000001000000000000000000000000000000000000000000000000000000000000000000000000000000000000000000000000000000200000000000000000000000000000000000000000000000000000000000000000000000000000002000000000000000000000000000000000000000000000000000000000000000000000000000000000000000000000000000000000000000000000020000000000000200000000000000000080000000000000000000000000000000000000000000000000000000000000000000000000000800000000000000000010000000000000000004000000000000000204000000000000000000000000",
      "type": "0x2",
      "transactionHash": "0x59a3b25cb14c8e0c2ab50aa37c0b79c44e57e2094f74a406ae314fb383f614fb",
      "transactionIndex": "0x10",
      "blockHash": "0x5d62cd43922e330060683ee7e027dc59d2664711db3d923feafb0a600953d69a",
      "blockNumber": "0x367f3ea",
      "gasUsed": "0xd5fc",
      "effectiveGasPrice": "0x5a5e33a7",
      "from": "0x837171dce4161927795c61524e92260b0bdaeb70",
      "to": "0x97e9d395aea458d55f0bb776f620c3e9401ecff7",
      "contractAddress": null
    }
  ],
  "libraries": [],
  "pending": [],
  "returns": {},
  "timestamp": 1784617131943,
  "chain": 43113,
  "commit": "b11ac1b"
}