{
  "transactions": [
    {
      "hash": "0x2b84d6795268bc356f77232e0a08b00787a297aea8096de523e066d9497c804c",
      "transactionType": "CALL",
      "contractName": null,
      "contractAddress": "0x02fc65e85d0c3940d2af62a836420f97ef520185",
      "function": "submitTransfer((bytes32,uint8,address,address,bytes32,bytes32,bytes32,bytes32,uint64,uint64,uint256,bytes32,bytes32,uint64,uint64))",
      "arguments": [
        "(0x03017cf1261bae71f7ece5acf37e5683e15005f84c70a00cca0249e0625e807e, 0, 0x837171DCE4161927795c61524E92260b0BDaeB70, 0x837171DCE4161927795c61524E92260b0BDaeB70, 0xbcdb6cfabeedf4cb75ce3843392e397abf95b450b1712991ca6db65da2a9cf8c, 0xbcdb6cfabeedf4cb75ce3843392e397abf95b450b1712991ca6db65da2a9cf8c, 0xcdcac76f717eaf570f9c540821a4da68ccc36596a054f9750352bf886e85243b, 0x0000000000000000000000000000000000000000000000000000000000000000, 1, 2, 150000000000000000000, 0x0000000000000000000000000000000000000000000000000000000000000000, 0x0000000000000000000000000000000000000000000000000000000000000000, 1784783076, 1784786676)"
      ],
      "transaction": {
        "from": "0x837171dce4161927795c61524e92260b0bdaeb70",
        "to": "0x02fc65e85d0c3940d2af62a836420f97ef520185",
        "gas": "0xa9d6d",
        "value": "0x0",
        "input": "0xf2c539e203017cf1261bae71f7ece5acf37e5683e15005f84c70a00cca0249e0625e807e0000000000000000000000000000000000000000000000000000000000000000000000000000000000000000837171dce4161927795c61524e92260b0bdaeb70000000000000000000000000837171dce4161927795c61524e92260b0bdaeb70bcdb6cfabeedf4cb75ce3843392e397abf95b450b1712991ca6db65da2a9cf8cbcdb6cfabeedf4cb75ce3843392e397abf95b450b1712991ca6db65da2a9cf8ccdcac76f717eaf570f9c540821a4da68ccc36596a054f9750352bf886e85243b00000000000000000000000000000000000000000000000000000000000000000000000000000000000000000000000000000000000000000000000000000001000000000000000000000000000000000000000000000000000000000000000200000000000000000000000000000000000000000000000821ab0d441498000000000000000000000000000000000000000000000000000000000000000000000000000000000000000000000000000000000000000000000000000000000000000000000000000000000000000000000000000000000000000000006a61a0e4000000000000000000000000000000000000000000000000000000006a61aef4",
        "nonce": "0x162",
        "chainId": "0xaa36a7"
      },
      "additionalContracts": [],
      "isFixedGasLimit": false
    }
  ],
  "receipts": [
    {
      "status": "0x1",
      "cumulativeGasUsed": "0x11d2bce",
      "logs": [
        {
          "address": "0x1b7b2e85be973d875b4ed5c20cf0ab01ecbb93ab",
          "topics": [
            "0x7e6aaf3fd12ee023589e102c9699d2f325333a3bb26ef4bb1462b3c206e05a0a",
            "0x03017cf1261bae71f7ece5acf37e5683e15005f84c70a00cca0249e0625e807e",
            "0x000000000000000000000000837171dce4161927795c61524e92260b0bdaeb70",
            "0x000000000000000000000000837171dce4161927795c61524e92260b0bdaeb70"
          ],
          "data": "0x0000000000000000000000000000000000000000000000000000000000000000000000000000000000000000000000000000000000000000000000006a61a114000000000000000000000000000000000000000000000000000000006a61aef4",
          "blockHash": "0x86ef4e7a2d91bd96fb96be80d6284afc6947bf7b5807293b04f4bfb460e180e1",
          "blockNumber": "0xace7cd",
          "blockTimestamp": "0x6a61a114",
          "transactionHash": "0x2b84d6795268bc356f77232e0a08b00787a297aea8096de523e066d9497c804c",
          "transactionIndex": "0x62",
          "logIndex": "0x3a0",
          "removed": false
        },
        {
          "address": "0x02fc65e85d0c3940d2af62a836420f97ef520185",
          "topics": [
            "0x1bc41c5c25de58f9aff8750f8cb896c10745dd9a0f5d7c83a71d5a9d8334eecf",
            "0x03017cf1261bae71f7ece5acf37e5683e15005f84c70a00cca0249e0625e807e",
            "0x000000000000000000000000837171dce4161927795c61524e92260b0bdaeb70",
            "0x000000000000000000000000837171dce4161927795c61524e92260b0bdaeb70"
          ],
          "data": "0x",
          "blockHash": "0x86ef4e7a2d91bd96fb96be80d6284afc6947bf7b5807293b04f4bfb460e180e1",
          "blockNumber": "0xace7cd",
          "blockTimestamp": "0x6a61a114",
          "transactionHash": "0x2b84d6795268bc356f77232e0a08b00787a297aea8096de523e066d9497c804c",
          "transactionIndex": "0x62",
          "logIndex": "0x3a1",
          "removed": false
        },
        {
          "address": "0x779877a7b0d9e8603169ddbd7836e478b4624789",
          "topics": [
            "0xddf252ad1be2c89b69c2b068fc378daa952ba7f163c4a11628f55a4df523b3ef",
            "0x00000000000000000000000040bbd60d3952f9c5c0654cba6bb9f0c99fcb3c4a",
            "0x00000000000000000000000012492154714fbd28f28219f6fc4315d19de1025b"
          ],
          "data": "0x00000000000000000000000000000000000000000000000000bc2ca57ac453bb",
          "blockHash": "0x86ef4e7a2d91bd96fb96be80d6284afc6947bf7b5807293b04f4bfb460e180e1",
          "blockNumber": "0xace7cd",
          "blockTimestamp": "0x6a61a114",
          "transactionHash": "0x2b84d6795268bc356f77232e0a08b00787a297aea8096de523e066d9497c804c",
          "transactionIndex": "0x62",
          "logIndex": "0x3a2",
          "removed": false
        },
        {
          "address": "0x779877a7b0d9e8603169ddbd7836e478b4624789",
          "topics": [
            "0x8c5be1e5ebec7d5bd14f71427d1e84f3dd0314c0f7b2291e5b200ac8c7c3b925",
            "0x00000000000000000000000040bbd60d3952f9c5c0654cba6bb9f0c99fcb3c4a",
            "0x0000000000000000000000000bf3de8c5d3e8a2b34d2beeb17abfcebaf363a59"
          ],
          "data": "0xffffffffffffffffffffffffffffffffffffffffffffffffff43d35a853bac44",
          "blockHash": "0x86ef4e7a2d91bd96fb96be80d6284afc6947bf7b5807293b04f4bfb460e180e1",
          "blockNumber": "0xace7cd",
          "blockTimestamp": "0x6a61a114",
          "transactionHash": "0x2b84d6795268bc356f77232e0a08b00787a297aea8096de523e066d9497c804c",
          "transactionIndex": "0x62",
          "logIndex": "0x3a3",
          "removed": false
        },
        {
          "address": "0x12492154714fbd28f28219f6fc4315d19de1025b",
          "topics": [
            "0xd0c3c799bf9e2639de44391e7f524d229b2b55f5b1ea94b2bf7da42f7243dddd"
          ],
          "data": "0x0000000000000000000000000000000000000000000000000000000000000020000000000000000000000000000000000000000000000000de41ba4fc9d91ad900000000000000000000000040bbd60d3952f9c5c0654cba6bb9f0c99fcb3c4a0000000000000000000000001d28767d8e0cd01a05ec23f80b977fe39c62892d0000000000000000000000000000000000000000000000000000000000005415000000000000000000000000000000000000000000000000000000000007a12000000000000000000000000000000000000000000000000000000000000000000000000000000000000000000000000000000000000000000000000000000001000000000000000000000000779877a7b0d9e8603169ddbd7836e478b462478900000000000000000000000000000000000000000000000000bc2ca57ac453bb00000000000000000000000000000000000000000000000000000000000001a0000000000000000000000000000000000000000000000000000000000000058000000000000000000000000000000000000000000000000000000000000005a05bc32b00f8ea17656f3b31d12aea14a845fb0e188b75525ac7e10c867b71f09f00000000000000000000000000000000000000000000000000000000000003c0000000000000000000000000000000000000000000000000000000000000002000000000000000000000000000000000000000000000000000000000000000015fa42365004d29017b6e1fff462c90ecf163a6f09987e7af7e4b8c324fc7cc5f00000000000000000000000000000000000000000000000000000000000000010000000000000000000000000000000000000000000000000000000000000000000000000000000000000000000000000000000000000000000000000000000003017cf1261bae71f7ece5acf37e5683e15005f84c70a00cca0249e0625e807e00000000000000000000000000000000000000000000000000000000000000010000000000000000000000000000000000000000000000000000000000000002000000000000000000000000000000000000000000000000000000006a61aef400000000000000000000000002fc65e85d0c3940d2af62a836420f97ef5201850000000000000000000000000000000000000000000000000000000000000000ae53046ce995c43d1a6e69819979cc2273a1de20684fc1d880535d7fec1e590800000000000000000000000000000000000000000000000000000000000001a000000000000000000000000000000000000000000000000000000000000001e003017cf1261bae71f7ece5acf37e5683e15005f84c70a00cca0249e0625e807e0000000000000000000000000000000000000000000000000000000000000000000000000000000000000000837171dce4161927795c61524e92260b0bdaeb70000000000000000000000000837171dce4161927795c61524e92260b0bdaeb70bcdb6cfabeedf4cb75ce3843392e397abf95b450b1712991ca6db65da2a9cf8cbcdb6cfabeedf4cb75ce3843392e397abf95b450b1712991ca6db65da2a9cf8ccdcac76f717eaf570f9c540821a4da68ccc36596a054f9750352bf886e85243b00000000000000000000000000000000000000000000000000000000000000000000000000000000000000000000000000000000000000000000000000000001000000000000000000000000000000000000000000000000000000000000000200000000000000000000000000000000000000000000000821ab0d441498000000000000000000000000000000000000000000000000000000000000000000000000000000000000000000000000000000000000000000000000000000000000000000000000000000000000000000000000000000000000000000006a61a0e4000000000000000000000000000000000000000000000000000000006a61aef400000000000000000000000000000000000000000000000000000000000000000000000000000000000000000000000000000000000000000000000000000000",
          "blockHash": "0x86ef4e7a2d91bd96fb96be80d6284afc6947bf7b5807293b04f4bfb460e180e1",
          "blockNumber": "0xace7cd",
          "blockTimestamp": "0x6a61a114",
          "transactionHash": "0x2b84d6795268bc356f77232e0a08b00787a297aea8096de523e066d9497c804c",
          "transactionIndex": "0x62",
          "logIndex": "0x3a4",
          "removed": false
        },
        {
          "address": "0x40bbd60d3952f9c5c0654cba6bb9f0c99fcb3c4a",
          "topics": [
            "0x2f96903f8b1053bf92692502561981ea1ded22e173728b36cce94793fe35e512",
            "0x5bc32b00f8ea17656f3b31d12aea14a845fb0e188b75525ac7e10c867b71f09f",
            "0x0000000000000000000000000000000000000000000000000000000000000002",
            "0x03017cf1261bae71f7ece5acf37e5683e15005f84c70a00cca0249e0625e807e"
          ],
          "data": "0x00000000000000000000000002fc65e85d0c3940d2af62a836420f97ef520185",
          "blockHash": "0x86ef4e7a2d91bd96fb96be80d6284afc6947bf7b5807293b04f4bfb460e180e1",
          "blockNumber": "0xace7cd",
          "blockTimestamp": "0x6a61a114",
          "transactionHash": "0x2b84d6795268bc356f77232e0a08b00787a297aea8096de523e066d9497c804c",
          "transactionIndex": "0x62",
          "logIndex": "0x3a5",
          "removed": false
        },
        {
          "address": "0x02fc65e85d0c3940d2af62a836420f97ef520185",
          "topics": [
            "0xd6aeb854cc637ab77f282aa57fc1465bb7244ebefcbc75e1a483ca8c3544ff9c",
            "0x03017cf1261bae71f7ece5acf37e5683e15005f84c70a00cca0249e0625e807e"
          ],
          "data": "0x0000000000000000000000000000000000000000000000000000000000000002",
          "blockHash": "0x86ef4e7a2d91bd96fb96be80d6284afc6947bf7b5807293b04f4bfb460e180e1",
          "blockNumber": "0xace7cd",
          "blockTimestamp": "0x6a61a114",
          "transactionHash": "0x2b84d6795268bc356f77232e0a08b00787a297aea8096de523e066d9497c804c",
          "transactionIndex": "0x62",
          "logIndex": "0x3a6",
          "removed": false
        }
      ],
      "logsBloom": "0x040000040000400000000000008000000204000000000000000000000000000000002000000000000000000100000208000000000400000008000000002001000000000000000000000000080000000000000000020000000000000001000000040000000a0100000000000400000000020000000800080000000014000000000000000008000000000000000000800000000000000000000000000000000000020000000000080400040100000000000000000000000000000100000000000000000002400000000000000002250000000100000000000100000000000000320010004000000010000000000000010006000100008000000000000860000000",
      "type": "0x2",
      "transactionHash": "0x2b84d6795268bc356f77232e0a08b00787a297aea8096de523e066d9497c804c",
      "transactionIndex": "0x62",
      "blockHash": "0x86ef4e7a2d91bd96fb96be80d6284afc6947bf7b5807293b04f4bfb460e180e1",
      "blockNumber": "0xace7cd",
      "gasUsed": "0x74212",
      "effectiveGasPrice": "0x3eacbff9",
      "from": "0x837171dce4161927795c61524e92260b0bdaeb70",
      "to": "0x02fc65e85d0c3940d2af62a836420f97ef520185",
      "contractAddress": null
    }
  ],
  "libraries": [],
  "pending": [],
  "returns": {},
  "timestamp": 1784783126180,
  "chain": 11155111,
  "commit": "b11ac1b"
}