{
  "transactions": [
    {
      "hash": "0x444a5a9c2a0c7cf0ff305d3ef2f204017f92deceec450c70fc5115ba8e6aeade",
      "transactionType": "CALL",
      "contractName": null,
      "contractAddress": "0x8c86bfe389bc7e9ead7930a1976ca78b085daa0c",
      "function": "submitTransfer((bytes32,uint8,address,address,bytes32,bytes32,bytes32,bytes32,uint64,uint64,uint256,bytes32,bytes32,uint64,uint64))",
      "arguments": [
        "(0x2568c3b7112bca02de9f6c8c96aa14087db9ff593ec244dc3f3a54f1c0ff4bea, 0, 0x837171DCE4161927795c61524E92260b0BDaeB70, 0x837171DCE4161927795c61524E92260b0BDaeB70, 0xbcdb6cfabeedf4cb75ce3843392e397abf95b450b1712991ca6db65da2a9cf8c, 0xbcdb6cfabeedf4cb75ce3843392e397abf95b450b1712991ca6db65da2a9cf8c, 0xcdcac76f717eaf570f9c540821a4da68ccc36596a054f9750352bf886e85243b, 0x0000000000000000000000000000000000000000000000000000000000000000, 1, 2, 100000000000000000000, 0x0000000000000000000000000000000000000000000000000000000000000000, 0x0000000000000000000000000000000000000000000000000000000000000000, 1784615076, 1784618676)"
      ],
      "transaction": {
        "from": "0x837171dce4161927795c61524e92260b0bdaeb70",
        "to": "0x8c86bfe389bc7e9ead7930a1976ca78b085daa0c",
        "gas": "0x9c8df",
        "value": "0x0",
        "input": "0xf2c539e22568c3b7112bca02de9f6c8c96aa14087db9ff593ec244dc3f3a54f1c0ff4bea0000000000000000000000000000000000000000000000000000000000000000000000000000000000000000837171dce4161927795c61524e92260b0bdaeb70000000000000000000000000837171dce4161927795c61524e92260b0bdaeb70bcdb6cfabeedf4cb75ce3843392e397abf95b450b1712991ca6db65da2a9cf8cbcdb6cfabeedf4cb75ce3843392e397abf95b450b1712991ca6db65da2a9cf8ccdcac76f717eaf570f9c540821a4da68ccc36596a054f9750352bf886e85243b0000000000000000000000000000000000000000000000000000000000000000000000000000000000000000000000000000000000000000000000000000000100000000000000000000000000000000000000000000000000000000000000020000000000000000000000000000000000000000000000056bc75e2d6310000000000000000000000000000000000000000000000000000000000000000000000000000000000000000000000000000000000000000000000000000000000000000000000000000000000000000000000000000000000000000000006a5f10a4000000000000000000000000000000000000000000000000000000006a5f1eb4",
        "nonce": "0x120",
        "chainId": "0xaa36a7"
      },
      "additionalContracts": [],
      "isFixedGasLimit": false
    }
  ],
  "receipts": [
    {
      "status": "0x1",
      "cumulativeGasUsed": "0x1497fbe",
      "logs": [
        {
          "address": "0x1b7b2e85be973d875b4ed5c20cf0ab01ecbb93ab",
          "topics": [
            "0x7e6aaf3fd12ee023589e102c9699d2f325333a3bb26ef4bb1462b3c206e05a0a",
            "0x2568c3b7112bca02de9f6c8c96aa14087db9ff593ec244dc3f3a54f1c0ff4bea",
            "0x000000000000000000000000837171dce4161927795c61524e92260b0bdaeb70",
            "0x000000000000000000000000837171dce4161927795c61524e92260b0bdaeb70"
          ],
          "data": "0x0000000000000000000000000000000000000000000000000000000000000000000000000000000000000000000000000000000000000000000000006a5f10d4000000000000000000000000000000000000000000000000000000006a5f1eb4",
          "blockHash": "0x21fd6937f2161c02e0bad589167515389c3de0db6db445b6e59a107fafe26a90",
          "blockNumber": "0xacb2af",
          "blockTimestamp": "0x6a5f10d4",
          "transactionHash": "0x444a5a9c2a0c7cf0ff305d3ef2f204017f92deceec450c70fc5115ba8e6aeade",
          "transactionIndex": "0x77",
          "logIndex": "0x3a1",
          "removed": false
        },
        {
          "address": "0x8c86bfe389bc7e9ead7930a1976ca78b085daa0c",
          "topics": [
            "0x1bc41c5c25de58f9aff8750f8cb896c10745dd9a0f5d7c83a71d5a9d8334eecf",
            "0x2568c3b7112bca02de9f6c8c96aa14087db9ff593ec244dc3f3a54f1c0ff4bea",
            "0x000000000000000000000000837171dce4161927795c61524e92260b0bdaeb70",
            "0x000000000000000000000000837171dce4161927795c61524e92260b0bdaeb70"
          ],
          "data": "0x",
          "blockHash": "0x21fd6937f2161c02e0bad589167515389c3de0db6db445b6e59a107fafe26a90",
          "blockNumber": "0xacb2af",
          "blockTimestamp": "0x6a5f10d4",
          "transactionHash": "0x444a5a9c2a0c7cf0ff305d3ef2f204017f92deceec450c70fc5115ba8e6aeade",
          "transactionIndex": "0x77",
          "logIndex": "0x3a2",
          "removed": false
        },
        {
          "address": "0x097d90c9d3e0b50ca60e1ae45f6a81010f9fb534",
          "topics": [
            "0xe1fffcc4923d04b559f4d29a8bfc6cda04eb5b0d3c460751c2402c5c5cc9109c",
            "0x0000000000000000000000000bf3de8c5d3e8a2b34d2beeb17abfcebaf363a59"
          ],
          "data": "0x0000000000000000000000000000000000000000000000000002939724832994",
          "blockHash": "0x21fd6937f2161c02e0bad589167515389c3de0db6db445b6e59a107fafe26a90",
          "blockNumber": "0xacb2af",
          "blockTimestamp": "0x6a5f10d4",
          "transactionHash": "0x444a5a9c2a0c7cf0ff305d3ef2f204017f92deceec450c70fc5115ba8e6aeade",
          "transactionIndex": "0x77",
          "logIndex": "0x3a3",
          "removed": false
        },
        {
          "address": "0x097d90c9d3e0b50ca60e1ae45f6a81010f9fb534",
          "topics": [
            "0xddf252ad1be2c89b69c2b068fc378daa952ba7f163c4a11628f55a4df523b3ef",
            "0x0000000000000000000000000bf3de8c5d3e8a2b34d2beeb17abfcebaf363a59",
            "0x00000000000000000000000012492154714fbd28f28219f6fc4315d19de1025b"
          ],
          "data": "0x0000000000000000000000000000000000000000000000000002939724832994",
          "blockHash": "0x21fd6937f2161c02e0bad589167515389c3de0db6db445b6e59a107fafe26a90",
          "blockNumber": "0xacb2af",
          "blockTimestamp": "0x6a5f10d4",
          "transactionHash": "0x444a5a9c2a0c7cf0ff305d3ef2f204017f92deceec450c70fc5115ba8e6aeade",
          "transactionIndex": "0x77",
          "logIndex": "0x3a4",
          "removed": false
        },
        {
          "address": "0x12492154714fbd28f28219f6fc4315d19de1025b",
          "topics": [
            "0xd0c3c799bf9e2639de44391e7f524d229b2b55f5b1ea94b2bf7da42f7243dddd"
          ],
          "data": "0x0000000000000000000000000000000000000000000000000000000000000020000000000000000000000000000000000000000000000000de41ba4fc9d91ad9000000000000000000000000f324d146e1043734004ed4a46ba78c388f2f5108000000000000000000000000c37c9871f927dd0d0f7305eebc9bb20c1a4a8b96000000000000000000000000000000000000000000000000000000000000540c000000000000000000000000000000000000000000000000000000000007a12000000000000000000000000000000000000000000000000000000000000000000000000000000000000000000000000000000000000000000000000000000002000000000000000000000000097d90c9d3e0b50ca60e1ae45f6a81010f9fb534000000000000000000000000000000000000000000000000000293972483299400000000000000000000000000000000000000000000000000000000000001a0000000000000000000000000000000000000000000000000000000000000058000000000000000000000000000000000000000000000000000000000000005a0efbe21ae9a6d2b4e827f5eddd4c43575bebc2ca0213fce9124531e85d15bb5e300000000000000000000000000000000000000000000000000000000000003c0000000000000000000000000000000000000000000000000000000000000002000000000000000000000000000000000000000000000000000000000000000015fa42365004d29017b6e1fff462c90ecf163a6f09987e7af7e4b8c324fc7cc5f0000000000000000000000000000000000000000000000000000000000000001000000000000000000000000000000000000000000000000000000000000000000000000000000000000000000000000000000000000000000000000000000002568c3b7112bca02de9f6c8c96aa14087db9ff593ec244dc3f3a54f1c0ff4bea00000000000000000000000000000000000000000000000000000000000000010000000000000000000000000000000000000000000000000000000000000002000000000000000000000000000000000000000000000000000000006a5f1eb40000000000000000000000008c86bfe389bc7e9ead7930a1976ca78b085daa0c000000000000000000000000000000000000000000000000000000000000000094561a48da29160ed1724e613d24a535e7b7bd116c1357ef8d394e8dcd7a7b7a00000000000000000000000000000000000000000000000000000000000001a000000000000000000000000000000000000000000000000000000000000001e02568c3b7112bca02de9f6c8c96aa14087db9ff593ec244dc3f3a54f1c0ff4bea0000000000000000000000000000000000000000000000000000000000000000000000000000000000000000837171dce4161927795c61524e92260b0bdaeb70000000000000000000000000837171dce4161927795c61524e92260b0bdaeb70bcdb6cfabeedf4cb75ce3843392e397abf95b450b1712991ca6db65da2a9cf8cbcdb6cfabeedf4cb75ce3843392e397abf95b450b1712991ca6db65da2a9cf8ccdcac76f717eaf570f9c540821a4da68ccc36596a054f9750352bf886e85243b0000000000000000000000000000000000000000000000000000000000000000000000000000000000000000000000000000000000000000000000000000000100000000000000000000000000000000000000000000000000000000000000020000000000000000000000000000000000000000000000056bc75e2d6310000000000000000000000000000000000000000000000000000000000000000000000000000000000000000000000000000000000000000000000000000000000000000000000000000000000000000000000000000000000000000000006a5f10a4000000000000000000000000000000000000000000000000000000006a5f1eb400000000000000000000000000000000000000000000000000000000000000000000000000000000000000000000000000000000000000000000000000000000",
          "blockHash": "0x21fd6937f2161c02e0bad589167515389c3de0db6db445b6e59a107fafe26a90",
          "blockNumber": "0xacb2af",
          "blockTimestamp": "0x6a5f10d4",
          "transactionHash": "0x444a5a9c2a0c7cf0ff305d3ef2f204017f92deceec450c70fc5115ba8e6aeade",
          "transactionIndex": "0x77",
          "logIndex": "0x3a5",
          "removed": false
        },
        {
          "address": "0xf324d146e1043734004ed4a46ba78c388f2f5108",
          "topics": [
            "0x2f96903f8b1053bf92692502561981ea1ded22e173728b36cce94793fe35e512",
            "0xefbe21ae9a6d2b4e827f5eddd4c43575bebc2ca0213fce9124531e85d15bb5e3",
            "0x0000000000000000000000000000000000000000000000000000000000000002",
            "0x2568c3b7112bca02de9f6c8c96aa14087db9ff593ec244dc3f3a54f1c0ff4bea"
          ],
          "data": "0x0000000000000000000000008c86bfe389bc7e9ead7930a1976ca78b085daa0c",
          "blockHash": "0x21fd6937f2161c02e0bad589167515389c3de0db6db445b6e59a107fafe26a90",
          "blockNumber": "0xacb2af",
          "blockTimestamp": "0x6a5f10d4",
          "transactionHash": "0x444a5a9c2a0c7cf0ff305d3ef2f204017f92deceec450c70fc5115ba8e6aeade",
          "transactionIndex": "0x77",
          "logIndex": "0x3a6",
          "removed": false
        },
        {
          "address": "0x8c86bfe389bc7e9ead7930a1976ca78b085daa0c",
          "topics": [
            "0xd6aeb854cc637ab77f282aa57fc1465bb7244ebefcbc75e1a483ca8c3544ff9c",
            "0x2568c3b7112bca02de9f6c8c96aa14087db9ff593ec244dc3f3a54f1c0ff4bea"
          ],
          "data": "0x0000000000000000000000000000000000000000000000000000000000000002",
          "blockHash": "0x21fd6937f2161c02e0bad589167515389c3de0db6db445b6e59a107fafe26a90",
          "blockNumber": "0xacb2af",
          "blockTimestamp": "0x6a5f10d4",
          "transactionHash": "0x444a5a9c2a0c7cf0ff305d3ef2f204017f92deceec450c70fc5115ba8e6aeade",
          "transactionIndex": "0x77",
          "logIndex": "0x3a7",
          "removed": false
        }
      ],
      "logsBloom": "0x04000000200040000000000000800000000400000000000000000000000000000000200008000000000000010000000800000000000000000800000000000100000000000000000000000008000000000200000002000000000000008100000004000000080100000000000400000000000000000000000000000014000000000000000028000400000000000000141008000001000000000000800000000000000000000010080400040100000000000000000000000000000100001000000000000002000000000000000000040000000100000000000000000000100000200000004040000010000000000000000004000100008000400000000860400000",
      "type": "0x2",
      "transactionHash": "0x444a5a9c2a0c7cf0ff305d3ef2f204017f92deceec450c70fc5115ba8e6aeade",
      "transactionIndex": "0x77",
      "blockHash": "0x21fd6937f2161c02e0bad589167515389c3de0db6db445b6e59a107fafe26a90",
      "blockNumber": "0xacb2af",
      "gasUsed": "0x7157c",
      "effectiveGasPrice": "0x419955ca",
      "from": "0x837171dce4161927795c61524e92260b0bdaeb70",
      "to": "0x8c86bfe389bc7e9ead7930a1976ca78b085daa0c",
      "contractAddress": null
    }
  ],
  "libraries": [],
  "pending": [],
  "returns": {},
  "timestamp": 1784615126416,
  "chain": 11155111,
  "commit": "b11ac1b"
}