{
  "transactions": [
    {
      "hash": "0x2f9dc4b39423db41b0432c577b2a20b312af201392670b4369f031c166bb6fcb",
      "transactionType": "CALL",
      "contractName": null,
      "contractAddress": "0x8c86bfe389bc7e9ead7930a1976ca78b085daa0c",
      "function": "submitTransfer((bytes32,uint8,address,address,bytes32,bytes32,bytes32,bytes32,uint64,uint64,uint256,bytes32,bytes32,uint64,uint64))",
      "arguments": [
        "(0x13e27dba81bd91d9a40c86d307f4624615db78806d3238fcc947f774f5198fd5, 0, 0x837171DCE4161927795c61524E92260b0BDaeB70, 0x837171DCE4161927795c61524E92260b0BDaeB70, 0xbcdb6cfabeedf4cb75ce3843392e397abf95b450b1712991ca6db65da2a9cf8c, 0xbcdb6cfabeedf4cb75ce3843392e397abf95b450b1712991ca6db65da2a9cf8c, 0xcdcac76f717eaf570f9c540821a4da68ccc36596a054f9750352bf886e85243b, 0x0000000000000000000000000000000000000000000000000000000000000000, 1, 2, 100000000000000000000, 0x0000000000000000000000000000000000000000000000000000000000000000, 0x0000000000000000000000000000000000000000000000000000000000000000, 1784612820, 1784616420)"
      ],
      "transaction": {
        "from": "0x837171dce4161927795c61524e92260b0bdaeb70",
        "to": "0x8c86bfe389bc7e9ead7930a1976ca78b085daa0c",
        "gas": "0xae01a",
        "value": "0x0",
        "input": "0xf2c539e213e27dba81bd91d9a40c86d307f4624615db78806d3238fcc947f774f5198fd50000000000000000000000000000000000000000000000000000000000000000000000000000000000000000837171dce4161927795c61524e92260b0bdaeb70000000000000000000000000837171dce4161927795c61524e92260b0bdaeb70bcdb6cfabeedf4cb75ce3843392e397abf95b450b1712991ca6db65da2a9cf8cbcdb6cfabeedf4cb75ce3843392e397abf95b450b1712991ca6db65da2a9cf8ccdcac76f717eaf570f9c540821a4da68ccc36596a054f9750352bf886e85243b0000000000000000000000000000000000000000000000000000000000000000000000000000000000000000000000000000000000000000000000000000000100000000000000000000000000000000000000000000000000000000000000020000000000000000000000000000000000000000000000056bc75e2d6310000000000000000000000000000000000000000000000000000000000000000000000000000000000000000000000000000000000000000000000000000000000000000000000000000000000000000000000000000000000000000000006a5f07d4000000000000000000000000000000000000000000000000000000006a5f15e4",
        "nonce": "0x11d",
        "chainId": "0xaa36a7"
      },
      "additionalContracts": [],
      "isFixedGasLimit": false
    }
  ],
  "receipts": [
    {
      "status": "0x1",
      "cumulativeGasUsed": "0x17095a9",
      "logs": [
        {
          "address": "0x1b7b2e85be973d875b4ed5c20cf0ab01ecbb93ab",
          "topics": [
            "0x7e6aaf3fd12ee023589e102c9699d2f325333a3bb26ef4bb1462b3c206e05a0a",
            "0x13e27dba81bd91d9a40c86d307f4624615db78806d3238fcc947f774f5198fd5",
            "0x000000000000000000000000837171dce4161927795c61524e92260b0bdaeb70",
            "0x000000000000000000000000837171dce4161927795c61524e92260b0bdaeb70"
          ],
          "data": "0x0000000000000000000000000000000000000000000000000000000000000000000000000000000000000000000000000000000000000000000000006a5f0804000000000000000000000000000000000000000000000000000000006a5f15e4",
          "blockHash": "0xcf305c4962f88036843344f4bbc1ce73eac62d8986547bac1925b1afded2222a",
          "blockNumber": "0xacb1fb",
          "blockTimestamp": "0x6a5f0804",
          "transactionHash": "0x2f9dc4b39423db41b0432c577b2a20b312af201392670b4369f031c166bb6fcb",
          "transactionIndex": "0x75",
          "logIndex": "0x3f5",
          "removed": false
        },
        {
          "address": "0x8c86bfe389bc7e9ead7930a1976ca78b085daa0c",
          "topics": [
            "0x1bc41c5c25de58f9aff8750f8cb896c10745dd9a0f5d7c83a71d5a9d8334eecf",
            "0x13e27dba81bd91d9a40c86d307f4624615db78806d3238fcc947f774f5198fd5",
            "0x000000000000000000000000837171dce4161927795c61524e92260b0bdaeb70",
            "0x000000000000000000000000837171dce4161927795c61524e92260b0bdaeb70"
          ],
          "data": "0x",
          "blockHash": "0xcf305c4962f88036843344f4bbc1ce73eac62d8986547bac1925b1afded2222a",
          "blockNumber": "0xacb1fb",
          "blockTimestamp": "0x6a5f0804",
          "transactionHash": "0x2f9dc4b39423db41b0432c577b2a20b312af201392670b4369f031c166bb6fcb",
          "transactionIndex": "0x75",
          "logIndex": "0x3f6",
          "removed": false
        },
        {
          "address": "0x097d90c9d3e0b50ca60e1ae45f6a81010f9fb534",
          "topics": [
            "0xe1fffcc4923d04b559f4d29a8bfc6cda04eb5b0d3c460751c2402c5c5cc9109c",
            "0x0000000000000000000000000bf3de8c5d3e8a2b34d2beeb17abfcebaf363a59"
          ],
          "data": "0x0000000000000000000000000000000000000000000000000002939724832994",
          "blockHash": "0xcf305c4962f88036843344f4bbc1ce73eac62d8986547bac1925b1afded2222a",
          "blockNumber": "0xacb1fb",
          "blockTimestamp": "0x6a5f0804",
          "transactionHash": "0x2f9dc4b39423db41b0432c577b2a20b312af201392670b4369f031c166bb6fcb",
          "transactionIndex": "0x75",
          "logIndex": "0x3f7",
          "removed": false
        },
        {
          "address": "0x097d90c9d3e0b50ca60e1ae45f6a81010f9fb534",
          "topics": [
            "0xddf252ad1be2c89b69c2b068fc378daa952ba7f163c4a11628f55a4df523b3ef",
            "0x0000000000000000000000000bf3de8c5d3e8a2b34d2beeb17abfcebaf363a59",
            "0x00000000000000000000000012492154714fbd28f28219f6fc4315d19de1025b"
          ],
          "data": "0x0000000000000000000000000000000000000000000000000002939724832994",
          "blockHash": "0xcf305c4962f88036843344f4bbc1ce73eac62d8986547bac1925b1afded2222a",
          "blockNumber": "0xacb1fb",
          "blockTimestamp": "0x6a5f0804",
          "transactionHash": "0x2f9dc4b39423db41b0432c577b2a20b312af201392670b4369f031c166bb6fcb",
          "transactionIndex": "0x75",
          "logIndex": "0x3f8",
          "removed": false
        },
        {
          "address": "0x12492154714fbd28f28219f6fc4315d19de1025b",
          "topics": [
            "0xd0c3c799bf9e2639de44391e7f524d229b2b55f5b1ea94b2bf7da42f7243dddd"
          ],
          "data": "0x0000000000000000000000000000000000000000000000000000000000000020000000000000000000000000000000000000000000000000de41ba4fc9d91ad9000000000000000000000000f324d146e1043734004ed4a46ba78c388f2f5108000000000000000000000000c37c9871f927dd0d0f7305eebc9bb20c1a4a8b96000000000000000000000000000000000000000000000000000000000000540b000000000000000000000000000000000000000000000000000000000007a12000000000000000000000000000000000000000000000000000000000000000000000000000000000000000000000000000000000000000000000000000000001000000000000000000000000097d90c9d3e0b50ca60e1ae45f6a81010f9fb534000000000000000000000000000000000000000000000000000293972483299400000000000000000000000000000000000000000000000000000000000001a0000000000000000000000000000000000000000000000000000000000000058000000000000000000000000000000000000000000000000000000000000005a08f937aca9451ed34dc06e72e5af5cbc3431bd3e500711ce3ff308508b531c98400000000000000000000000000000000000000000000000000000000000003c0000000000000000000000000000000000000000000000000000000000000002000000000000000000000000000000000000000000000000000000000000000015fa42365004d29017b6e1fff462c90ecf163a6f09987e7af7e4b8c324fc7cc5f00000000000000000000000000000000000000000000000000000000000000010000000000000000000000000000000000000000000000000000000000000000000000000000000000000000000000000000000000000000000000000000000013e27dba81bd91d9a40c86d307f4624615db78806d3238fcc947f774f5198fd500000000000000000000000000000000000000000000000000000000000000010000000000000000000000000000000000000000000000000000000000000002000000000000000000000000000000000000000000000000000000006a5f15e40000000000000000000000008c86bfe389bc7e9ead7930a1976ca78b085daa0c0000000000000000000000000000000000000000000000000000000000000000a6e657b2b47f9450c5d69b9cb9c01ea2d5b6ebfd4bdbacafb7342c30809c43b000000000000000000000000000000000000000000000000000000000000001a000000000000000000000000000000000000000000000000000000000000001e013e27dba81bd91d9a40c86d307f4624615db78806d3238fcc947f774f5198fd50000000000000000000000000000000000000000000000000000000000000000000000000000000000000000837171dce4161927795c61524e92260b0bdaeb70000000000000000000000000837171dce4161927795c61524e92260b0bdaeb70bcdb6cfabeedf4cb75ce3843392e397abf95b450b1712991ca6db65da2a9cf8cbcdb6cfabeedf4cb75ce3843392e397abf95b450b1712991ca6db65da2a9cf8ccdcac76f717eaf570f9c540821a4da68ccc36596a054f9750352bf886e85243b0000000000000000000000000000000000000000000000000000000000000000000000000000000000000000000000000000000000000000000000000000000100000000000000000000000000000000000000000000000000000000000000020000000000000000000000000000000000000000000000056bc75e2d6310000000000000000000000000000000000000000000000000000000000000000000000000000000000000000000000000000000000000000000000000000000000000000000000000000000000000000000000000000000000000000000006a5f07d4000000000000000000000000000000000000000000000000000000006a5f15e400000000000000000000000000000000000000000000000000000000000000000000000000000000000000000000000000000000000000000000000000000000",
          "blockHash": "0xcf305c4962f88036843344f4bbc1ce73eac62d8986547bac1925b1afded2222a",
          "blockNumber": "0xacb1fb",
          "blockTimestamp": "0x6a5f0804",
          "transactionHash": "0x2f9dc4b39423db41b0432c577b2a20b312af201392670b4369f031c166bb6fcb",
          "transactionIndex": "0x75",
          "logIndex": "0x3f9",
          "removed": false
        },
        {
          "address": "0xf324d146e1043734004ed4a46ba78c388f2f5108",
          "topics": [
            "0x2f96903f8b1053bf92692502561981ea1ded22e173728b36cce94793fe35e512",
            "0x8f937aca9451ed34dc06e72e5af5cbc3431bd3e500711ce3ff308508b531c984",
            "0x0000000000000000000000000000000000000000000000000000000000000002",
            "0x13e27dba81bd91d9a40c86d307f4624615db78806d3238fcc947f774f5198fd5"
          ],
          "data": "0x0000000000000000000000008c86bfe389bc7e9ead7930a1976ca78b085daa0c",
          "blockHash": "0xcf305c4962f88036843344f4bbc1ce73eac62d8986547bac1925b1afded2222a",
          "blockNumber": "0xacb1fb",
          "blockTimestamp": "0x6a5f0804",
          "transactionHash": "0x2f9dc4b39423db41b0432c577b2a20b312af201392670b4369f031c166bb6fcb",
          "transactionIndex": "0x75",
          "logIndex": "0x3fa",
          "removed": false
        },
        {
          "address": "0x8c86bfe389bc7e9ead7930a1976ca78b085daa0c",
          "topics": [
            "0xd6aeb854cc637ab77f282aa57fc1465bb7244ebefcbc75e1a483ca8c3544ff9c",
            "0x13e27dba81bd91d9a40c86d307f4624615db78806d3238fcc947f774f5198fd5"
          ],
          "data": "0x0000000000000000000000000000000000000000000000000000000000000002",
          "blockHash": "0xcf305c4962f88036843344f4bbc1ce73eac62d8986547bac1925b1afded2222a",
          "blockNumber": "0xacb1fb",
          "blockTimestamp": "0x6a5f0804",
          "transactionHash": "0x2f9dc4b39423db41b0432c577b2a20b312af201392670b4369f031c166bb6fcb",
          "transactionIndex": "0x75",
          "logIndex": "0x3fb",
          "removed": false
        }
      ],
      "logsBloom": "0x0400000000004000000000000080000000040000000000000000000000000000000020000800000000000001000000080000000000000000080000200000010000200000000000000000000800000000020000000200000000000000c100000004000000080100000000000400000000000000000000000000001014000000000000000008000000000000000000041008000001000000000000800000080000000000000000080400040100000000000000000000000000000100001000000000000002000000000000000000040000000100000000000000000000080000200000004040000010000000000000000004000100008000400000000860400000",
      "type": "0x2",
      "transactionHash": "0x2f9dc4b39423db41b0432c577b2a20b312af201392670b4369f031c166bb6fcb",
      "transactionIndex": "0x75",
      "blockHash": "0xcf305c4962f88036843344f4bbc1ce73eac62d8986547bac1925b1afded2222a",
      "blockNumber": "0xacb1fb",
      "gasUsed": "0x76fa9",
      "effectiveGasPrice": "0x42ac4d95",
      "from": "0x837171dce4161927795c61524e92260b0bdaeb70",
      "to": "0x8c86bfe389bc7e9ead7930a1976ca78b085daa0c",
      "contractAddress": null
    }
  ],
  "libraries": [],
  "pending": [],
  "returns": {},
  "timestamp": 1784612869242,
  "chain": 11155111,
  "commit": "b11ac1b"
}