{
  "transactions": [
    {
      "hash": "0xff28999ca89637e1c028e08f55cf9f3bbc1671d45d5fb91b537238729177ef70",
      "transactionType": "CALL",
      "contractName": null,
      "contractAddress": "0x40bbd60d3952f9c5c0654cba6bb9f0c99fcb3c4a",
      "function": "setAllowedSender(uint64,address,bool)",
      "arguments": [
        "2",
        "0x1D28767d8e0Cd01A05EC23f80b977fe39C62892d",
        "true"
      ],
      "transaction": {
        "from": "0x837171dce4161927795c61524e92260b0bdaeb70",
        "to": "0x40bbd60d3952f9c5c0654cba6bb9f0c99fcb3c4a",
        "gas": "0x12381",
        "value": "0x0",
        "input": "0x2d1dd80400000000000000000000000000000000000000000000000000000000000000020000000000000000000000001d28767d8e0cd01a05ec23f80b977fe39c62892d0000000000000000000000000000000000000000000000000000000000000001",
        "nonce": "0x160",
        "chainId": "0xaa36a7"
      },
      "additionalContracts": [],
      "isFixedGasLimit": false
    },
    {
      "hash": "0x3f4f5830fea64d53324c14e5cfa300521d5b06286f399f3a7ab0d9e2819ead7b",
      "transactionType": "CALL",
      "contractName": null,
      "contractAddress": "0x40bbd60d3952f9c5c0654cba6bb9f0c99fcb3c4a",
      "function": "setRemoteReceiver(uint64,address)",
      "arguments": [
        "2",
        "0x1D28767d8e0Cd01A05EC23f80b977fe39C62892d"
      ],
      "transaction": {
        "from": "0x837171dce4161927795c61524e92260b0bdaeb70",
        "to": "0x40bbd60d3952f9c5c0654cba6bb9f0c99fcb3c4a",
        "gas": "0x13137",
        "value": "0x0",
        "input": "0x073d3a7a00000000000000000000000000000000000000000000000000000000000000020000000000000000000000001d28767d8e0cd01a05ec23f80b977fe39c62892d",
        "nonce": "0x161",
        "chainId": "0xaa36a7"
      },
      "additionalContracts": [],
      "isFixedGasLimit": false
    }
  ],
  "receipts": [
    {
      "status": "0x1",
      "cumulativeGasUsed": "0x162520f",
      "logs": [
        {
          "address": "0x40bbd60d3952f9c5c0654cba6bb9f0c99fcb3c4a",
          "topics": [
            "0x378f44987a5b0a1c47eae763755f5dc5090a184b55840cda0546b89f21bf7e56",
            "0x0000000000000000000000000000000000000000000000000000000000000002"
          ],
          "data": "0x0000000000000000000000001d28767d8e0cd01a05ec23f80b977fe39c62892d0000000000000000000000000000000000000000000000000000000000000001",
          "blockHash": "0x9b789367edfb37f0132ea12910f8c0d04d955d4dd648060fb1779f736eafde22",
          "blockNumber": "0xace798",
          "blockTimestamp": "0x6a619e68",
          "transactionHash": "0x3f4f5830fea64d53324c14e5cfa300521d5b06286f399f3a7ab0d9e2819ead7b",
          "transactionIndex": "0x6a",
          "logIndex": "0x173",
          "removed": false
        }
      ],
      "logsBloom": "0x04000000000000000000000000000000000000000000000000000000000000000000000000000000000000000000000000000000000000000000000000000000000000000000000000000000000000000000000000000000000000000000000000000000020000000000000000000000040000000000080000000000000000000000000000000000000000000000000000000000000000000000000000000000000000000000000000000100000000000000000000000000000000000000000000000000000000000000000000200000000000000000000000000000000040000000000000000000000000000000100000000000008000000000000000000000",
      "type": "0x2",
      "transactionHash": "0x3f4f5830fea64d53324c14e5cfa300521d5b06286f399f3a7ab0d9e2819ead7b",
      "transactionIndex": "0x6a",
      "blockHash": "0x9b789367edfb37f0132ea12910f8c0d04d955d4dd648060fb1779f736eafde22",
      "blockNumber": "0xace798",
      "gasUsed": "0xd30c",
      "effectiveGasPrice": "0x463f1e32",
      "from": "0x837171dce4161927795c61524e92260b0bdaeb70",
      "to": "0x40bbd60d3952f9c5c0654cba6bb9f0c99fcb3c4a",
      "contractAddress": null
    },
    {
      "status": "0x1",
      "cumulativeGasUsed": "0x16322c1",
      "logs": [
        {
          "address": "0x40bbd60d3952f9c5c0654cba6bb9f0c99fcb3c4a",
          "topics": [
            "0x6a7360f663af61663f1c7200fbeececfc000167c98a372fe026625b9bc382e32",
            "0x0000000000000000000000000000000000000000000000000000000000000002"
          ],
          "data": "0x0000000000000000000000001d28767d8e0cd01a05ec23f80b977fe39c62892d",
          "blockHash": "0x9b789367edfb37f0132ea12910f8c0d04d955d4dd648060fb1779f736eafde22",
          "blockNumber": "0xace798",
          "blockTimestamp": "0x6a619e68",
          "transactionHash": "0xff28999ca89637e1c028e08f55cf9f3bbc1671d45d5fb91b537238729177ef70",
          "transactionIndex": "0x6b",
          "logIndex": "0x174",
          "removed": false
        }
      ],
      "logsBloom": "0x04000000000000000000000000000000000000000000000000000000000000000000000000000004000000000000000000000000000000000000004000000000000000000000000000000000000000000000000000000000000000000000000000000000020000000000000000000000000000000000080000000000000000000000000000000000000000000000000000000000000000000000000000000000000000000000000000000100000000000000000000000000000000000000080000000000000000000000000000200000000000000000000000000000000000000000000000000000000000000000000000000000008000000000000000000000",
      "type": "0x2",
      "transactionHash": "0xff28999ca89637e1c028e08f55cf9f3bbc1671d45d5fb91b537238729177ef70",
      "transactionIndex": "0x6b",
      "blockHash": "0x9b789367edfb37f0132ea12910f8c0d04d955d4dd648060fb1779f736eafde22",
      "blockNumber": "0xace798",
      "gasUsed": "0xd0b2",
      "effectiveGasPrice": "0x463f1e32",
      "from": "0x837171dce4161927795c61524e92260b0bdaeb70",
      "to": "0x40bbd60d3952f9c5c0654cba6bb9f0c99fcb3c4a",
      "contractAddress": null
    }
  ],
  "libraries": [],
  "pending": [],
  "returns": {},
  "timestamp": 1784782440644,
  "chain": 11155111,
  "commit": "b11ac1b"
}